:020000040800F2
:10000000980700208901000849270008BF1B000845
:10001000452700088F020008C72A000800000000DA
:10002000000000000000000000000000D1270008D0
:100030009302000800000000A7270008D32700084B
:10004000A3010008A3010008A3010008A301000800
:10005000A3010008A3010008A3010008A3010008F0
:10006000A3010008A3010008A3010008A3010008E0
:10007000A3010008A3010008A3010008A3010008D0
:10008000A3010008A3010008A3010008A3010008C0
:10009000A3010008A3010008A3010008A3010008B0
:1000A000A3010008A3010008A3010008A3010008A0
:1000B000A301000845280008A3010008A3010008C7
:1000C000A3010008A3010008A3010008A301000880
:1000D000A3010008A3010008A3010008A301000870
:1000E000A3010008A3010008A301000800F002F822
:1000F00000F03AF80AA090E8000C82448344AAF188
:100100000107DA4501D100F02FF8AFF2090EBAE885
:100110000F0013F0010F18BFFB1A43F0010318473B
:10012000383C0000583C0000103A24BF78C878C121
:10013000FAD8520724BF30C830C144BF04680C60ED
:10014000704700000023002400250026103A28BF35
:1001500078C1FBD8520728BF30C148BF0B60704739
:100160001FB51FBD10B510BD00F05CF81146FFF7BC
:10017000F7FF02F00DFF00F07AF803B4FFF7F2FF8B
:1001800003BC00F07DF8000009488047094800479B
:10019000FEE7FEE7FEE7FEE7FEE7FEE7FEE7FEE737
:1001A000FEE7FEE704480549054A064B7047000094
:1001B00041280008ED000008980100209807002061
:1001C00098030020980300204FF0000200B513466A
:1001D00094469646203922BFA0E80C50A0E80C5067
:1001E000B1F12001BFF4F7AF090728BFA0E80C5018
:1001F00048BF0CC05DF804EB890028BF40F8042B11
:1002000008BF704748BF20F8022B11F0804F18BF7D
:1002100000F8012B704770477047704700487047DF
:10022000340100207546FFF7F9FFAE460500694628
:10023000534620F00700854618B020B5FFF7B2FFFF
:10024000BDE820404FF000064FF000074FF00008D7
:100250004FF0000B21F00701AC46ACE8C009ACE858
:10026000C009ACE8C009ACE8C0098D46704710B5BC
:100270000446AFF300802046BDE81040FFF77DBF85
:1002800001491820ABBEFEE726000200704700BF00
:10029000FEE7704772B600BFFEE7000070B5044687
:1002A00000F0A6F906462546681C10B104480078FF
:1002B000054400BF00F09CF9801BA842FAD370BD32
:1002C000240000202DE9F8470346002294466EE101
:1002D0004FF0010808FA02F4D1F8008008EA04009F
:1002E000A0427DD1DFF8DCA2D1F80480A8EB0A0996
:1002F000D0453AD014DCB8F1030F50D009DCB8F186
:10030000000F31D0B8F1010F1CD0B8F1020F49D164
:1003100020E0B8F1110F18D0B8F1120F42D11EE051
:10032000B9F5881F25D006DCB9F5803F20D0B9F596
:10033000801F37D11AE0B9F5001F18D0B9F5041F96
:1003400030D117E0D1F80CC02DE0D1F80C8008F1C5
:10035000040C28E0D1F80C8008F1080C23E0D1F857
:100360000C8008F10C0C1EE000BF00BF00BF00BFF6
:1003700000BF00BFD1F80880B8F1000F02D14FF0E4
:10038000040C0BE0D1F80880B8F1010F03D14FF055
:10039000080C1C6102E04FF0080C5C6103E04FF0B8
:1003A000000C00E000BF00BFFF2801D8984601E024
:1003B00003F104084646FF2802D84FEA820803E00A
:1003C000A2F108084FEA88084746D6F800804FF0A7
:1003D0000F0909FA07F928EA09080CFA07F900E0F9
:1003E00088E048EA0908C6F80080D1F8048008F0DF
:1003F0008058B8F1805F7DD100BFDFF8CC81D8F89C
:10040000188048F00108DFF8C091C9F81880C84684
:10041000D8F8188008F00108CDF8008000BF00BFB0
:100420004FEAB9384FEA920958F829504FEA8278D2
:100430004FEA18794FF00F0808FA09F825EA08057D
:10044000DFF88881434502D14FF0000816E0DFF85D
:100450008081434502D14FF001080FE0DFF874813D
:10046000434502D14FF0020808E0DFF86C814345B4
:1004700002D14FF0030801E04FF004084FEA8279FF
:100480004FEA197908FA09F848EA0505DFF84C81BE
:100490004FEA920948F82950D1F8048008F48018EE
:1004A000B8F5801F0AD1DFF83881D8F8008048EA13
:1004B0000008DFF82C91C9F8008009E0DFF82081FE
:1004C000D8F8008028EA0008DFF81491C9F8008005
:1004D000D1F8048008F40018B8F5001F10D1DFF837
:1004E000008108F10408D8F8008048EA0008DFF825
:1004F000F09000E05AE009F10409C9F800800DE02D
:10050000DFF8DC8008F10408D8F8008028EA000849
:10051000DFF8CC9009F10409C9F80080D1F8048013
:1005200008F40038B8F5003F0ED1DFF8B480A8F128
:100530000408D8F8008048EA0008DFF8A490A9F180
:100540000409C9F800800DE0DFF89480A8F10408E0
:10055000D8F8008028EA0008DFF88490A9F104099F
:10056000C9F80080D1F8048008F48038B8F5803FDD
:100570000ED1DFF86C80A8F10808D8F8008048EAAE
:100580000008DFF85C90A9F10809C9F800800DE0C7
:10059000DFF84C80A8F10808D8F8008028EA0008A5
:1005A000DFF83C90A9F10809C9F80080521CD1F885
:1005B000008028FA02F8B8F1000F7FF489AEBDE898
:1005C000F8870000000011100010024000080140F0
:1005D000000C0140001001400014014008000140DF
:1005E000080401400AB1016101E00B040361704796
:1005F00001480068704700001C00002070B50446E8
:100600000CB9012070BD94F83D0028B9002084F891
:100610003C00204600F046FB242084F83D00206882
:10062000006820F00100216808602068006840F43C
:100630000040216808602068006820F400402168BC
:10064000086000F007FD05465C496068884206D8EE
:100650005B48854201D2012007E0002005E05948AF
:10066000854201D2012000E00020012800D1C9E725
:100670005548B5FBF0F62068406820F03F00304355
:10068000216848604D496068884201D8701C07E0C5
:100690004FF4967070434FF47A71B0FBF1F0401C48
:1006A0002168096A21F03F01084321680862434933
:1006B0006068884214D8681E61684900B0FBF1F098
:1006C000401CC0F30B00042801D204203DE0681E4A
:1006D00061684900B0FBF1F0401CC0F30B0034E04E
:1006E000A06838B9681E616801EB4101B0FBF1F008
:1006F000401C0AE0681E616801EBC10202EB0111B7
:10070000B0FBF1F0401C40F48040C0F30B0008B98E
:1007100001201AE0A06848B9681E616801EB410138
:10072000B0FBF1F0401CC0F30B000CE0681E6168E8
:1007300001EBC10202EB0111B0FBF1F0401CC0F370
:100740000B0040F4804040F400402168C9694CF639
:10075000FF72914308432168C861D4E90701084347
:100760002168096821F0C001084321680860D4E9C4
:10077000031008432168896848F2FF329143084317
:1007800021688860D4E9050108432168C96821F01F
:10079000FF0108432168C8602068006840F001003C
:1007A0002168086000202064202084F83D0000209B
:1007B000206384F83E0000BF24E70000A08601000B
:1007C00080841E0000093D0040420F002DE9FE4FCD
:1007D00004460F4690469946DDE90CAB0E9E00207C
:1007E0000290FFF705FF054694F83D00202872D1DE
:1007F00019230122CE492046009501F054FB10B187
:100800000220BDE8FE8F00BF94F83C00012801D112
:100810000220F6E7012084F83C0000BF2068006851
:1008200000F0010028B92068006840F0010021684C
:1008300008602068006820F40060216808602220B9
:1008400084F83D00402084F83E0000202064C4F875
:1008500024A0A4F82AB0608D2085B648E0624B46FB
:10086000424639462046CDE9006501F0C9F908B194
:100870000120C6E7208D88B900BF002001902068C4
:100880004069019020688069019000BF00BF206826
:10089000006840F40070216808604BE0208D01285A
:1008A0001AD12068006820F480602168086072B660
:1008B00000BF002001902068406901902068806995
:1008C000019000BF00BF2068006840F400702168FC
:1008D000086062B62EE029E1208D022819D1206837
:1008E000006840F400602168086072B600BF002014
:1008F000019020684069019020688069019000BFE4
:1009000000BF2068006820F480602168086062B63B
:1009100010E02068006840F480602168086000BF33
:100920000020019020684069019020688069019052
:1009300000BF00BFEBE0208D03287DD8208D01286B
:1009400015D12A463146204601F089FB08B1012025
:1009500057E720680069616A0870606A401C60623D
:10096000208D401E2085608D401E6085CFE0208D4B
:1009700002282CD1334600226F492046009501F011
:1009800092FA08B101203CE772B62068006840F492
:1009900000702168086020680069616A0870606AF8
:1009A000401C6062208D401E2085608D401E608549
:1009B00062B620680069616A0870606A401C606203
:1009C000208D401E2085608D401E60859FE033464F
:1009D000002259492046009501F065FA08B101202E
:1009E0000FE72068006820F480602168086072B614
:1009F00020680069616A0870606A401C6062208D2E
:100A0000401E2085608D401E60854C48006819217D
:100A1000B0FBF1F04FF47A71B0FBF1F0C0EBC00025
:100A200000EB8000029000BF0298401E02900298E6
:100A3000A8B90020206300E039E0202084F83D00C0
:100A4000002084F83E00206C40F02000206462B654
:100A500000BF002084F83C0000BF0120D1E62068E0
:100A60004069C0F380000028DED02068006840F4B0
:100A700000702168086020680069616A0870606A17
:100A8000401C6062208D401E2085608D401E608568
:100A900062B620680069616A0870606A401C606222
:100AA000208D401E2085608D401E60852FE02A46E7
:100AB0003146204601F0D3FA08B10120A1E62068B2
:100AC0000069616A0870606A401C6062208D401E87
:100AD0002085608D401E608520684069C0F38000DD
:100AE000A8B1208D032805D12068006820F480601B
:100AF0002168086020680069616A0870606A401CAB
:100B00006062208D401E2085608D401E6085208D96
:100B100000287FF410AF202084F83D00002084F8E6
:100B20003E0000BF84F83C0000BF6AE6022068E691
:100B3000020010000000FFFF040001002800002058
:100B40002DE9FC5F04460F4690469946DDE90CAB63
:100B50000E9EFFF74DFD054694F83D0020287DD1FF
:100B6000192301224D492046009501F09CF910B14E
:100B70000220BDE8FC9F00BF94F83C00012801D191
:100B80000220F6E7012084F83C0000BF20680068DE
:100B900000F0010028B92068006840F001002168D9
:100BA00008602068006820F4006021680860212047
:100BB00084F83D00402084F83E0000202064C4F802
:100BC00024A0A4F82AB0608D20853548E0624B4609
:100BD000424639462046CDE9006501F0C1F808B12A
:100BE0000120C6E731E02A463146204601F07CFA72
:100BF00050B1206C042805D12068006840F40070D2
:100C0000216808600120B4E7606A00782168086103
:100C1000606A401C6062208D401E2085608D401EF1
:100C2000608520684069C0F3800070B1208D60B19C
:100C3000606A007821680861606A401C6062208DEB
:100C4000401E2085608D401E6085208D0028CAD101
:100C50002A463146204601F0F3F800E01CE050B18E
:100C6000206C042805D12068006840F400702168D9
:100C7000086001207DE72068006840F4007021686A
:100C80000860202084F83D00002084F83E0000BF6A
:100C900084F83C0000BF6CE702206AE70200100005
:100CA0000000FFFF10B586B00446002002900390BC
:100CB0000490059015492068884225D100BF14484A
:100CC000806940F00800124988610846806900F098
:100CD0000800019000BF00BFC020029012200390C6
:100CE0000320059002A90B48FFF7ECFA00BF084863
:100CF000C06940F400100649C8610846C06900F4A4
:100D00000010019000BF00BF06B010BD00540040AD
:100D100000100240000C01400348006803490978B4
:100D200008440149086070471C000020240000208E
:100D300010B50848006840F010000649086003201C
:100D400000F0A8F80F2000F007F800F02BF80020C2
:100D500010BD00000020024070B504460E48007827
:100D60004FF47A71B1FBF0F00C490968B1FBF0F572
:100D7000284600F0E9FB08B1012070BD102C07D215
:100D800000222146501E00F047F80548046001E0AB
:100D90000120F2E70020F0E72400002028000020D6
:100DA0002000002008B500BF1148806940F0010014
:100DB0000F4988610846806900F00100009000BF7B
:100DC00000BF00BF0846C06940F08050C8610846B7
:100DD000C06900F08050009000BF00BF00BF05490F
:100DE000486820F0E06040F00070486000BF08BD37
:100DF000001002400000014001460846002809DBBF
:100E000000F01F0301229A4043099B0003F1E023F5
:100E1000C3F8002100BF70472DE9F05F80460D4602
:100E20001646002701F066FE074639462A46334635
:100E300001F00700C0F1070ABAF1040F02D94FF020
:100E4000040A01E0C0F1070AD14600F1040ABAF130
:100E5000070F02D24FF0000A01E0A0F1030AD446C6
:100E60004FF0010A0AFA09FAAAF1010A0AEA020A8B
:100E70000AFA0CFA4FF0010B0BFA0CFBABF1010B69
:100E80000BEA030B4AEA0B042146404601F03AFE06
:100E9000BDE8F09F00BF00F00702064B19684FF64F
:100EA000FF031940044B0B4343EA0221014B196035
:100EB00000BF70470CED00E00000FA0570B5044675
:100EC0000D460CB9012070BD5A48006800F00700BB
:100ED000A8420ED25748006820F007002843554921
:100EE00008600846006800F00700A84201D0012011
:100EF000E9E7207800F0020002281DD1207800F0F8
:100F00000400042805D14C48406840F4E0604A4998
:100F10004860207800F00800082805D1464840685D
:100F200040F46050444948604348406820F0F00075
:100F3000A168084340494860207800F0010078B378
:100F40006068012806D13C48006800F4003090B980
:100F50000120B8E76068022806D13748006800F031
:100F6000007040B90120AEE73348006800F002008D
:100F700008B90120A7E73048406820F00300616805
:100F800008432D494860FFF733FB064609E0FFF7A9
:100F90002FFB801B41F28831884202D9032092E75F
:100FA00007E02548406800F00C006168B0EB810F55
:100FB000EDD12048006800F00700A8420ED91D4876
:100FC000006820F0070028431A49086008460068B6
:100FD00000F00700A84201D0012074E7207800F05B
:100FE0000400042807D11448406820F4E060E16858
:100FF000084311494860207800F00800082808D10B
:101000000D48406820F46050216940EAC1000A4957
:10101000486000F02FF808494968C1F30311074AF6
:10102000515CC8400649086006480068FFF794FE16
:10103000002048E70020024000100240A03C0008C9
:1010400028000020200000200148006870470000B0
:101050002800002000B5FFF7F7FF04494968C1F3F5
:101060000221034A515CC84000BD0000001002404C
:10107000B03C000870B500210022002400230020AD
:10108000134D696801F00C05F5B1042D02D0082D4F
:1010900019D101E00F4819E00F4DC1F38346AB5D54
:1010A00001F4803555B10A4D6D68C5F340450B4ECE
:1010B000725D084D5D43B5FBF2F402E0084D03FBA1
:1010C00005F4204602E000BF024800BF00BF70BD2B
:1010D0000010024000127A008E3C00089E3C00087E
:1010E00000093D00F8B504460CB90120F8BD207890
:1010F00000F00100002878D0F848406800F00C00AB
:1011000004280CD0F548406800F00C00082811D1E4
:10111000F248406800F48030B0F5803F0AD1EF48D3
:10112000006800F4003000285FD0606800285CD1BF
:101130000120DBE700BF6068B0F5803F06D1E748DB
:10114000006840F48030E549086028E0606858B9DC
:10115000E248006820F48030E049086008460068F2
:1011600020F4802008601AE06068B0F5A02F0BD151
:10117000DA48006840F48020D849086008460068D2
:1011800040F4803008600AE0D448006820F48030E1
:10119000D24908600846006820F48020086000BF3B
:1011A000606888B1FFF724FA054606E0FFF720FAE9
:1011B000401B642801D9032098E7C848006800F460
:1011C00000300028F2D010E0FFF712FA054606E0E2
:1011D000FFF70EFA401B642801D9032086E7BF48B9
:1011E000006800F400300028F2D1207800F00200FE
:1011F000022857D1B948406800F00C0050B1B748F8
:10120000406800F00C00082818D1B448406800F489
:10121000803098B9B148006800F0020020B1206920
:10122000012801D0012061E7AC48006820F0F800F7
:10123000616940EAC100A949086033E02069E8B16A
:101240000120A7490860FFF7D3F9054606E0FFF73C
:10125000CFF9401B022801D9032047E79F480068C7
:1012600000F002000028F2D09C48006820F0F8004E
:10127000616940EAC1009949086013E0002098497B
:101280000860FFF7B5F9054606E0FFF7B1F9401B26
:10129000022801D9032029E79048006800F00200E5
:1012A0000028F2D1207800F0080008282DD1A0698C
:1012B000B8B101208B490860FFF79AF9054606E0AE
:1012C000FFF796F9401B022801D903200EE7834857
:1012D000406A00F002000028F2D0012001F064FA18
:1012E00013E000207F490860FFF782F9054606E019
:1012F000FFF77EF9401B022801D90320F6E6774864
:10130000406A00F002000028F2D1207800F00400CA
:10131000042873D100277148C06900F0805070B96B
:1013200000BF6E48C06940F080506C49C8610846F3
:10133000C06900F08050009000BF00BF01276A48DC
:10134000006800F48070B0B96748006840F48070AD
:1013500065490860FFF74CF9054606E0FFF748F9D4
:10136000401B642801D90320C0E65F48006800F4F0
:1013700080700028F2D000BFE068012806D15748ED
:10138000006A40F001005549086227E0E06858B95A
:101390005248006A20F00100504908620846006A7D
:1013A00020F00400086219E0E06805280BD14B48E2
:1013B000006A40F00400494908620846006A40F0AB
:1013C000010008620AE04548006A20F00100434934
:1013D00008620846006A20F00400086200BFE06866
:1013E000A0B1FFF705F9054609E0FFF701F9401B39
:1013F00041F28831884202D9032077E622E037485B
:10140000006A00F002000028EFD012E0FFF7F0F8C9
:10141000054608E0FFF7ECF8401B41F288318842AE
:1014200001D9032062E62D48006A00F0020000287E
:10143000F0D1012F05D12948C06920F080502749FB
:10144000C86100BFE069C8B32448406800F00C00E0
:10145000082860D0E069022848D1002020490866A9
:10146000FFF7C6F8054606E0FFF7C2F8401B022862
:1014700001D903203AE61948006800F000700028FE
:10148000F2D1206AB0F5803F07D11448406820F4BB
:101490000030A168084311494860D4E908010843B5
:1014A0000E49496821F4741108430C494860012031
:1014B0000B490866FFF79CF8054607E03DE0FFF79B
:1014C00097F8401B022801D903200FE60348006863
:1014D00000F000700028F2D02FE000000010024061
:1014E0000000424280044242007000400020144943
:1014F0000866FFF77DF8054606E0FFF779F8401B20
:10150000022801D90320F1E50E48006800F00070C0
:101510000028F2D111E0E069012800D1E6E5094890
:10152000466806F48031206A814204D106F47011C5
:10153000606A814201D00120D8E50020D6E5000094
:10154000000042420010024070B504462546681E65
:10155000B0F1807F01D301200FE0681E4FF0E02141
:1015600048610F214FF0FF3001F0CCFA00204FF01E
:10157000E021886107200861002070BD7047704736
:1015800030B502460B4600BF92F83C00012801D15D
:10159000022030BD012082F83C0000BF022082F80A
:1015A0003D00106844681068816824F07004186871
:1015B000044310684460104D1068A8420BD01068B6
:1015C000B0F1804F07D00D4D1068A84203D00C4DEC
:1015D0001068A84205D121F08001586801431068C5
:1015E0008160012082F83D0000BF002082F83C00AD
:1015F00000BF00BFCDE70000002C01400004004008
:101600000008004010B504460CB9012010BD94F844
:101610003D0028B9002084F83C00204600F026F860
:10162000022084F83D00211D206801F013F90120FB
:1016300084F8460000BF84F83E0001213F20015598
:10164000402001554120015500BF00BF012084F812
:10165000420043200155442001554520015500BF5B
:10166000012084F83D000020D0E7000038B5044692
:101670002068B0F1804F0DD100BF1448C06940F020
:1016800001001249C8610846C06900F001000090DD
:1016900000BF19E00E492068884215D100BF0B48F1
:1016A000C06940F002000949C8610846C06900F0FD
:1016B0000200009000BF00BF002211461D20FFF76E
:1016C000ABFB1D20FFF798FB38BD00000010024067
:1016D00000040040014691F83D00012801D001209E
:1016E0007047022081F83D000868C06840F00100A2
:1016F0000B68D860124B086898420BD00868B0F1AC
:10170000804F07D00F4B0868984203D00E4B0868F3
:1017100098420CD10868806800F00702062A0CD0B5
:101720000868006840F001000B68186005E0086870
:10173000006840F001000B6818600020D0E700004E
:10174000002C014000040040000800402DE9F04159
:1017500004460D46002700BF94F83C00012802D142
:101760000220BDE8F081012084F83C0000BF022087
:1017700084F83D002068866826F0770626F47F46C8
:10178000206886602868502833D00CDC202850D090
:1017900004DC00284BD0102851D149E0302849D032
:1017A00040284CD139E060282DD0702807D0B0F502
:1017B000805F03D0B0F5005F41D10DE041E0D5E995
:1017C00002136A68206801F087F82068866846F08E
:1017D00077062068866034E0D5E902136A682068DD
:1017E00001F07AF82068806840F4804021688860C1
:1017F00027E0EA686968206801F03EF95021206816
:1018000001F075F81DE0EA686968206801F047F9A1
:101810006021206801F06BF813E0EA6869682068CD
:1018200001F02AF94021206801F061F809E000BFC9
:1018300000BF00BF2968206801F059F801E00127C6
:1018400000BF00BF012084F83D0000BF002084F8E5
:101850003C0000BF384684E7704770B504462068F6
:10186000C5682068066906F00200022819D105F053
:101870000200022815D1401F21680861012020774D
:101880002068806900F0030018B12046FFF7E4FFEC
:1018900005E0204600F0C2F8204600F076F900206E
:1018A000207706F00400042819D105F0040004286C
:1018B00015D1C04321680861022020772068806923
:1018C00000F4407018B12046FFF7C6FF05E020463F
:1018D00000F0A4F8204600F058F90020207706F028
:1018E0000800082819D105F00800082815D1C043C0
:1018F00021680861042020772068C06900F0030097
:1019000018B12046FFF7A8FF05E0204600F086F852
:10191000204600F03AF90020207706F01000102849
:1019200019D105F01000102815D1C04321680861B5
:10193000082020772068C06900F4407018B1204664
:10194000FFF78AFF05E0204600F068F8204600F027
:101950001CF90020207706F0010048B105F00100D5
:1019600030B16FF0010021680861204600F00EF9E7
:1019700006F08000802809D105F08000802805D17C
:10198000C043216808612046FFF7F8FD06F04000DB
:10199000402809D105F04000402805D1C043216806
:1019A0000861204600F00AF906F02000202809D13D
:1019B00005F02000202805D1C04321680861204699
:1019C000FFF7DDFD70BD000010B586B004460020B5
:1019D00002900390049005902068B0F1804F16D1DA
:1019E00000BF0C48806940F004000A49886108463D
:1019F000806900F00400019000BF00BF0C2002903D
:101A000002200390059002A90348FEF75BFC06B094
:101A100010BD0000001002400008014070472DE991
:101A2000F04104460D461646002700BF94F83C00DE
:101A3000012802D10220BDE8F081012084F83C0099
:101A400000BF36B1042E1BD0082E31D00C2E5ED133
:101A500045E02946206800F053FF2068806940F087
:101A60000800216888612068806920F004002168EE
:101A7000886120688069296908432168886148E095
:101A80002946206800F06CFF2068806940F40060FF
:101A9000216888612068806920F4806021688861FD
:101AA00020688069296940EA01202168886130E066
:101AB0002946206800F088FF2068C06940F00800CF
:101AC0002168C8612068C06920F004002168C861ED
:101AD0002068C069296908432168C86119E029465E
:101AE000206800F0A5FF2068C06940F4006021680C
:101AF000C8612068C06920F480602168C8612068DE
:101B0000C069296940EA01202168C86101E0012714
:101B100000BF00BF00BF002084F83C0000BF384673
:101B200089E710B504460CB9012010BD94F83D00BA
:101B300028B9002084F83C00204600F025F8022057
:101B400084F83D00211D206800F084FE012084F807
:101B5000460000BF84F83E0001213F20015540208F
:101B600001554120015500BF00BF012084F842000B
:101B700043200155442001554520015500BF012057
:101B800084F83D000020D0E77047704770B50446E8
:101B90000749206888420AD100F0DAFA054903C9EA
:101BA00001F014FA05462946034800F0CFFD70BD48
:101BB000000400404000002000000020704700BFEB
:101BC000FEE7014608684069C0F38020B0B16FF4B9
:101BD00080600A68506100200863202081F83D0081
:101BE000002081F83E00086C40F00400086400BF4B
:101BF000002081F83C0000BF012070470020FCE776
:101C00002DE9F84304460F4615469946DDE9088656
:101C10002068006840F480602168086020680068DF
:101C200040F4807021680860434600224FF00111A3
:101C30002046009600F037F960B12068006800F493
:101C40008070B0F5807F02D14FF4007020640320D3
:101C5000BDE8F88307F0FE0021680861334642467C
:101C60003E49204600F07EF908B10120F0E700BFB0
:101C700000200090206840690090206880690090F2
:101C800000BF00BF32464146204600F02DFA50B159
:101C9000206C042805D12068006840F40070216899
:101CA00008600120D4E7B9F1010F03D1E8B221683F
:101CB000086117E0C5F307202168086132464146F4
:101CC000204600F011FA50B1206C042805D120689C
:101CD000006840F40070216808600120B8E7E8B2AD
:101CE0002168086132464146204600F0FDF950B1B6
:101CF000206C042805D12068006840F40070216839
:101D000008600120A4E72068006840F48070216822
:101D10000860434600224FF001112046009600F073
:101D2000C2F858B12068006800F48070B0F5807F78
:101D300002D14FF400702064032089E7F8B240F02C
:101D4000010021680861334642460449204600F0FC
:101D500009F908B101207BE7002079E702000100C2
:101D60002DE9F8430446884615469946DDE908679B
:101D70002068006840F480702168086033460022C3
:101D80004FF001112046009700F08DF860B12068F7
:101D9000006800F48070B0F5807F02D14FF40070CD
:101DA00020640320BDE8F88308F0FE002168086184
:101DB0003B4632462149204600F0D4F808B10120C4
:101DC000F0E700BF00200090206840690090206884
:101DD0008069009000BF00BF3A463146204600F0BF
:101DE00083F950B1206C042805D12068006840F4C4
:101DF0000070216808600120D4E7B9F1010F03D118
:101E0000E8B22168086117E0C5F30720216808617E
:101E10003A463146204600F067F950B1206C04285C
:101E200005D12068006840F4007021680860012036
:101E3000B8E7E8B2216808610020B3E702000100BA
:101E400070B504460D46164625E02046FFF7B9FE5C
:101E500008B1012070BD681CE8B1FEF7C9FB801B0A
:101E6000A84200D8BDB920684069C0F3800090B98D
:101E700000202063202084F83D00002084F83E00EC
:101E8000206C40F02000206400BF002084F83C005B
:101E900000BF0120DEE720684069C0F38000002811
:101EA000D3D00020D6E72DE9F04104460D46174671
:101EB0001E46DDF8188038E0701CA8B3FEF798FBCA
:101EC000A0EB0800B04200D876BBC5F3074001285C
:101ED0000AD120684069A9B20840A9B2884201D15C
:101EE00001200BE0002009E020688069A9B20840C9
:101EF000A9B2884201D1012000E00020B84214D1EB
:101F000000202063202084F83D00002084F83E005B
:101F1000206C40F02000206400BF002084F83C00CA
:101F200000BF0120BDE8F081FFE7C5F307400128AD
:101F30000AD120684069A9B20840A9B2884201D1FB
:101F400001200BE0002009E020688069A9B2084068
:101F5000A9B2884201D1012000E00020B842ABD0F4
:101F60000020DFE72DE9F04104460D4616461F46E6
:101F700058E020684069C0F38020E8B1206800681C
:101F800040F40070216808606FF480602168486147
:101F900000202063202084F83D00002084F83E00CB
:101FA000206C40F00400206400BF002084F83C0056
:101FB00000BF0120BDE8F081701C90B3FEF718FB54
:101FC000C01BB04200D866BBC5F3074001280AD148
:101FD00020684069A9B20840A9B2884201D1012015
:101FE0000BE0002009E020688069A9B20840A9B28E
:101FF000884201D1012000E0002090B90020206338
:10200000202084F83D00002084F83E00206C40F041
:102010002000206400BF002084F83C0000BF0120A5
:10202000C8E7FFE7C5F3074001280AD120684069E7
:10203000A9B20840A9B2884201D101200BE00020DA
:1020400009E020688069A9B20840A9B2884201D19C
:10205000012000E0002000288BD00020AAE770B506
:1020600004460D46164637E020684069C0F300106C
:10207000A0B16FF01000216848610020206320208B
:1020800084F83D00002084F83E00206C206400BFEE
:10209000002084F83C0000BF012070BDFEF7A8FAC4
:1020A000801BA84200D8BDB920684069C0F38010E9
:1020B00090B900202063202084F83D00002084F89F
:1020C0003E00206C40F02000206400BF002084F817
:1020D0003C0000BF0120E0E720684069C0F38010A9
:1020E0000028C1D00020D8E770B504460D4616463A
:1020F00025E02046FFF765FD08B1012070BD681C92
:10210000E8B1FEF775FA801BA84200D8BDB9206877
:102110004069C0F3C01090B900202063202084F8EB
:102120003D00002084F83E00206C40F02000206438
:1021300000BF002084F83C0000BF0120DEE72068DB
:102140004069C0F3C0100028D3D00020D6E70000BB
:102150002DE9F04F87B000BF00BF23482349244B2F
:10216000244ACDE900102449244800F057F800F033
:1021700025F9CDE904011C48B0F9000001F060F92F
:10218000804600221E4B01F003F8064600221D4B3C
:1021900001F06EF904461C4A1C4B01F069F98246B5
:1021A0001B480CC8504600F043FFCDE90201194816
:1021B0000CC80020184901F065FA8046DDE90423C7
:1021C00001F056F904460D461249DDE9022303C920
:1021D00001F04EF9064622462B4600F029FF0C4A34
:1021E00003C207B0BDE8F08F3A000020380000209D
:1021F0003600002034000020320000203000002093
:102200000000E04000409F40FCA9F1D24D62503FE9
:1022100040000020480000200000F03F2DE9F0437E
:1022200085B004460D4616461F46DDE90C8964203C
:10223000012104AA0B46CDE9002102903B22D021C6
:102240005D48FEF7C3FA6420012103AA0B46CDE9DD
:10225000002102903C22D0215748FEF7B7FA9DF8A2
:102260000C009DF8101040EA012000B2208064208C
:10227000012104AA0B46CDE9002102903D22D02184
:102280004D48FEF7A3FA6420012103AA0B46CDE9CD
:10229000002102903E22D0214748FEF797FA9DF890
:1022A0000C009DF8101040EA012000B22880642044
:1022B000012104AA0B46CDE9002102903F22D02142
:1022C0003D48FEF783FA6420012103AA0B46CDE9BD
:1022D000002102904022D0213748FEF777FA9DF87E
:1022E0000C009DF8101040EA012000B230806420FC
:1022F000012104AA0B46CDE9002102904322D021FE
:102300002D48FEF763FA6420012103AA0B46CDE9AC
:10231000002102904422D0212748FEF757FA9DF869
:102320000C009DF8101040EA012000B238806420B3
:10233000012104AA0B46CDE9002102904522D021BB
:102340001D48FEF743FA6420012103AA0B46CDE99C
:10235000002102904622D0211748FEF737FA9DF857
:102360000C009DF8101040EA012000B2A8F800000F
:102370006420012104AA0B46CDE9002102904722E6
:10238000D0210D48FEF722FA6420012103AA0B4652
:10239000CDE9002102904822D0210748FEF716FA25
:1023A0009DF80C009DF8101040EA012000B2A9F839
:1023B000000005B0BDE8F083500000202DE9FF5F6C
:1023C00000BF16481649174B174ACDE900101749A8
:1023D0001748FFF723FF1648B0F9000001F030F866
:1023E00006460F461148B0F9000001F029F8804672
:1023F00032463B4600F00CFD04460E4A0E4B00F000
:10240000C7FE824600220D4B01F032F8CDE90201F1
:10241000DDE9020104B0BDE8F09F00003A000020B1
:102420003800002036000020340000203200002058
:10243000300000206E861BF0F921094000806640C4
:102440007FB50546012003906420012103AA0B46B5
:10245000CDE9002102906B22D0212846FEF770FBC7
:10246000044614B1204604B070BD6420FDF716FF89
:10247000002003906420012103AA0B46CDE900212E
:1024800002906C22D0212846FEF75AFB04460CB17C
:102490002046E8E76420FDF701FF0920039064204F
:1024A000012103AA0B46CDE9002102901922D02177
:1024B0002846FEF745FB04460CB12046D3E706202C
:1024C00003906420012103AA0B46CDE9002102906C
:1024D0001A22D0212846FEF733FB04460CB12046D1
:1024E000C1E7182003906420012103AA0B46CDE91F
:1024F000002102901B22D0212846FEF721FB044632
:102500000CB12046AFE7182003906420012103AAF4
:102510000B46CDE9002102901C22D0212846FEF76F
:102520000FFB04460CB120469DE700209BE700000E
:1025300000B585B00020019002900390049000BF88
:102540002748806940F02000254988610846806955
:1025500000F02000009000BF00BF00BF0846806967
:1025600040F0040088610846806900F00400009093
:1025700000BF00BF00BF0846806940F008008861C6
:102580000846806900F00800009000BF00BF0022EC
:102590004FF4C0411348FEF725F800224FF4406184
:1025A0001148FEF71FF84FF4C0400190012002903F
:1025B000002003900220049001A90A48FDF782FE42
:1025C0004FF440600190012002900020039002200F
:1025D000049001A90448FDF775FE05B000BD000098
:1025E00000100240000C01400008014010B50B48EB
:1025F0000B4908600B484860002109488160C160B0
:102600004FF480410161002141618161C16101623A
:10261000FDF7F4FF08B1FDF73DFE10BD005400408A
:1026200050000020A086010000B58DB00020099068
:102630000A900B900C90079008901C216846FDF7BB
:10264000C3FD4FF0804023490860472048600021C7
:10265000204881606321C160002101618161FEF732
:10266000D1FF08B1FDF716FE4FF48050099009A97B
:102670001848FFF76BF808B1FDF70CFE1548FFF797
:1026800050FA08B1FDF706FE00200790089007A950
:102690001048FEF775FF08B1FDF7FCFD60200090C3
:1026A0000020019002900490082269460948FFF733
:1026B000B6F908B1FDF7EEFD0C2269460548FFF7B3
:1026C000AEF908B1FDF7E6FD0248FFF77DF90DB060
:1026D00000BD0000A400002000B587B000200390DA
:1026E00004900590069001900290144814490860E7
:1026F0004720486000211248816040F2E731C16004
:10270000002101618161FEF77DFF08B1FDF7C2FD87
:102710004FF48050039003A90948FFF717F808B158
:10272000FDF7B8FD00200190029001A90448FEF7D2
:1027300027FF08B1FDF7AEFD07B000BD0004004063
:10274000EC00002000BFFEE700BFFEE72DE9F05FD0
:1027500004460E463146E06801F0ACF905462946CC
:10276000206901F079F820612846616901F0A2F939
:1027700080464146A06801F0D1F881462169606831
:1027800001F0CCF882462946206801F0C7F883465C
:10279000514601F061F80746494601F05DF8A06135
:1027A0006561BDE8F09F704708B508490968C90828
:1027B0004FF47A72B1FBF2F14143009100BF00BFC8
:1027C00000994A1E00920029F9D108BD2800002076
:1027D000704710B5FEF7A0FA10BD00B58FB02821E4
:1027E00005A8FDF7F1FC14216846FDF7EDFC01207A
:1027F0000590000406900020079001200990022017
:102800000C90C1030D914FF4E0110E9105A8FEF755
:1028100069FC08B1FDF73EFD0F20009002200190F9
:10282000002002904FF48060039000200490022169
:102830006846FEF743FB08B1FDF72CFD0FB000BD65
:102840007047000010B50248FFF707F810BD000000
:10285000EC00002010B502681C4B984208D0B0F183
:10286000804F05D01A4B984202D01A4B984203D1A0
:1028700022F070024B681A43144B984208D0B0F112
:10288000804F05D0124B984202D0124B984203D190
:1028900022F44072CB681A4322F080034C6943EA69
:1028A000040202608B68C3620B688362074B984224
:1028B00001D10B69036301234361036903F0010341
:1028C0001BB1036923F00103036110BD002C01401B
:1028D000000400400008004030B50C46816821F437
:1028E0007F4142EA032525432943816030BD0A46E2
:1028F000816821F0700142F007031943816070473D
:1029000030B5026A056A25F00105056243688469ED
:1029100024F0700424F003040D682C4322F002021A
:102920008D682A430D4DA84206D100BF22F008024F
:10293000CD682A4322F00402084DA84207D123F4AF
:10294000807323F400734D692B438D692B434360DF
:1029500084614D684563026230BD0000002C014077
:1029600030B5026A056A25F010050562436884697E
:1029700024F4E04424F440740D6844EA052422F071
:1029800020028D6842EA05120E4DA84207D100BF11
:1029900022F08002CD6842EA051222F04002094D81
:1029A000A84209D123F4806323F400634D6943EA0C
:1029B00085038D6943EA8503436084614D688563BF
:1029C000026230BD002C014030B5026A056A25F470
:1029D000807505624368C46924F0700424F0030420
:1029E0000D682C4322F400728D6842EA05220F4DD7
:1029F000A84207D100BF22F40062CD6842EA052256
:102A000022F48062094DA84209D123F4805323F4B3
:102A100000534D6943EA05138D6943EA051343608A
:102A2000C4614D68C563026230BD0000002C0140E6
:102A300030B5036A056A25F4805505624468C269A9
:102A400022F4E04222F440720D6842EA052223F4A7
:102A500000538D6843EA0533064DA84204D124F49F
:102A600080444D6944EA85144460C2614D68056440
:102A7000036230BD002C014030B50B461446026A9B
:102A8000056A25F001050562816921F0F00141EA3E
:102A9000041122F00A021A438161026230BD30B58E
:102AA0000B461446026A056A25F010050562816925
:102AB00021F4704141EA043122F0A00242EA0312FB
:102AC0008161026230BD00BFFEE7490050EAC120CB
:102AD00018BF04204A0D18BF40F0010040F2FF72F9
:102AE000B2EB515F08BF40F00200012808BF05208B
:102AF0007047000002480068C0F3022070470000E1
:102B00000CED00E010B5002804DB0A07130E054A9F
:102B1000135406E00A07140E034A00F00F031B1FAC
:102B2000D45410BD00E400E018ED00E02DE9F041C0
:102B30004F1E00EBC7010446D1E9000115461E46B1
:102B400037F006020DD02A46334600F091FC7F1E76
:102B500004EBC703D3E9002300F06AFA37F006025A
:102B6000F1D1022F25D0042F13D0062F18BFBDE8B6
:102B7000F0812A46334600F07BFCD4E90A2300F0BA
:102B800057FA2A46334600F073FCD4E9082300F0D4
:102B90004FFA2A46334600F06BFCD4E9062300F0D6
:102BA00047FA2A46334600F063FCD4E9042300F0D8
:102BB0003FFA2A46334600F05BFCD4E9022300F0DA
:102BC00037FA2A46334600F053FCD4E90023BDE827
:102BD000F04100F02DBA012201F013B800F028BA3C
:102BE000024A0020110701F00CB8000001FDFFFFB0
:102BF0002DE9F84F04460D4621F00040009173493D
:102C0000814211DC7249884201DC06D12CB1204698
:102C10002946BDE8F84FFFF7DEBF6E48002DCCBF58
:102C20006D496E49BDE8F88F6D49814211DD6D49EE
:102C30008142D8BF4FF0FF366DDD20462946FFF7B1
:102C400044FF042808BFFFF7CBFF20462946BDE814
:102C5000F88F6549654F25F00045814233DD6449B1
:102C6000814219DD002632464FF080432046294636
:102C700000F0DEF980468A4601222046294600F00F
:102C8000C0FF00223B4600F0FDFC4246534600F0E8
:102C90007FFA04460D463EE001260022BA463B4636
:102CA0002046294600F0C4F980460F4600225346CC
:102CB0002046294600F0E6FC42463B4600F068FA12
:102CC00004460D4627E04B4981421BDDDFF828A171
:102CD0000226002253462046294600F0C9FB002266
:102CE0003B4600F0A5F980460F4600225346204699
:102CF000294600F0C7FC42463B4600F049FA04462C
:102D00000D4608E0032622462B4600203B4900F0F2
:102D10003FFA04460D4622462B461046194600F05F
:102D2000A7FB8B46824602460B4600F0A1FB0746F6
:102D30000246334888460B4606217844FFF7F6FEE4
:102D400052465B4600F094FB82462E488B463A463C
:102D5000434605217844FFF7E9FE3A46434600F032
:102D600087FB02460B46002E504659460CDA00F00F
:102D70005FF922462B4600F07BFB01B022462B4632
:102D8000BDE8F04F00F072BC00F052F922462B462D
:102D900000F06EFB1C4A7A4402EBC603D3E9002321
:102DA00000F070FC22462B4600F06CFC174A7A4477
:102DB00002EBC603D3E9002300F058FC009A002A76
:102DC000B8BF81F00041BDE8F88F0000000010445A
:102DD0000000F07F182D4454FB21F93FFB21F9BF7F
:102DE0000000DC3F0000203E0000F33F0000F03F09
:102DF0000000E63F008003400000F83F0000F0BF05
:102E0000E20F0000A00F00003E0F0000060F0000C0
:102E10002DE9F04D9446CCF1000423F000464CEA35
:102E20000404524F46EAD4749A46884621F0004280
:102E3000BC4206D8454240EA050442EAD474BC428A
:102E400004D9BDE8F04D6246FFF7C8BEAAF140556F
:102E5000A5F17F6555EA0C040BD0022404EAAA749C
:102E6000434DDFF810E144EAD87452EA000B04D075
:102E70000CE0BDE8F04DFFF7BBBE002C14BF012CE9
:102E8000BDE8F08D022C30D0032C32D056EA0C0B6A
:102E90000AD0BE4220D1BA4209D126F0804622F0A3
:102EA00080423346114617E000291ADB25E0DFF89F
:102EB000C8B0FB44002C04BFDBE90001BDE8F08D85
:102EC000012C02BFDBE9000181F00041BDE8F08D7B
:102ED000022C0AD0032C0CD0BA4212D1B8F1000F48
:102EE0000BDA23482549BDE8F08D28462449BDE882
:102EF000F08D28467146BDE8F08D1D482149BDE89A
:102F0000F08D921B12153C2AC4BF19481D490EDCD6
:102F1000BAF1000FBEBF12F13C0F0020014606DBE4
:102F2000624600F035F921F00041FFF761FE002C08
:102F300008BFBDE8F08D012C04BF81F00041BDE861
:102F4000F08D114A114B022C07D000F09BFB2A4652
:102F5000BDE8F04D0A4B00F095BB00F093FB2A460C
:102F6000BDE8F04D064B00F081BB00000000F07F93
:102F7000182D4454FB2109C09A0E0000FB21F9BF13
:102F8000FB210940FB21F93F075C143326A6A13C35
:102F9000FDF7CEFEFFF721FCFFF7CAFAFFF744FB6F
:102FA000FFF724FBFFF798FB0548FFF749FAFFF707
:102FB00005FA044A03C20448FEF78CFB00BFFEE793
:102FC0005000002040000020EC00002021F00042D2
:102FD000A2F16052B2F5801F01F0004328BFD2F188
:102FE0007F6C0BD95FEA001C43EAC20242EB5070CF
:102FF00018BF704728BF20F001007047B2F5801F4E
:10300000BCBF184670474FEA410C1CF5001F02D2A6
:10301000084600F04ABD70B500F0D4FA00000089FF
:10302000FFF7F6BF4FF00040A0F5800070470000AA
:1030300010B591EA030F48BF83F0004300F12A83E3
:10304000841A71EB030C05D2121943EB0C03001B1D
:1030500061EB0C01DFF824E14FEA1154A4EB135C9F
:103060001EEA430F18BF9EEA445F73D023EA0E03A3
:10307000DCF1200E21EA045143F4801332D322FA0A
:103080000CFE10EB0E0023FA0CFE41EB0E01CCF10E
:10309000200E03FA0EFE10EB0E0051F10001B1F507
:1030A000801FCCF1200E32D201EB045112FA0EF245
:1030B000BDE8104058BF7047401C38BF5FEA42026D
:1030C00018BF7047002814BF20F0010041F1000133
:1030D0004FEA410313F5001F38BF7047A1F1C0410B
:1030E00000F0BEBA012A43EB0302ACF1200CDCF184
:1030F0001F0E32BF4FF0000E23FA0CF310EB03004B
:1031000041EB0451B4EB115FD0D0A1EB045101F5B8
:10311000801149085FEA300001EB04510ED350F1F1
:10312000000038BF12FA0EFE08D1BDE81040C9E712
:10313000401C38BF5FEA4202CAD1C3E7BDE8104075
:103140004FEA410313F5001F38BF7047A1F1C0419A
:1031500000F086BA9EEA445F08D011EA5E0FBDE82F
:10316000104004BF01F0004100207047BDE810404E
:1031700070B500F027FA00BF64FBBE3E0000E0FF20
:1031800002494FF0000000F00ABD00BF0000F87FC8
:103190002DE9C04130B4DFF8A0C23CEA111418BFD9
:1031A0003CEA131400F0EC8081EA03051CEA1114D8
:1031B00044EAD57418BF1CEA131500F0C780A4EBCD
:1031C00005044FF0004545EAC12145EAC32341EA21
:1031D000505143EA525304F17F74994204F500348C
:1031E0004FEAC0204FEAC22208BF904200F09C8004
:1031F0004FEA13650FF24016765D4FEA134506FB62
:1032000005F7C7F1807706FB07F74FEAD737A7FB2B
:1032100003687642C8F58038A7FB06CE38BFA8F110
:10322000010807FB08E64FF0000EA6FB028CE6FB48
:1032300003CEDCF1000CCEF1004E38BFAEF1010E32
:10324000A6FB0C584FF000074FF00005E6FB0E8779
:10325000A1FB08C6A0FB07CE16EB0E0645F1000544
:10326000E1FB076515F1E04E7EBFA4F580345FEA0F
:1032700046066D4116F1800745F100054FEA172714
:103280004FEA066647EA0567A6F1DE46B6F1805FBB
:103290004FEA15251FD9384624F0010C05EBC471FF
:1032A000BCF1FE6F01EB0C1102D8F0BCBDE800814F
:1032B00024425CBF01F5801E9EEAC47F02D4F0BCAC
:1032C000BDE80081244238D4F0BCA1F1C041BDE882
:1032D000004100F0C5B94FEAD22242EA43524FEA18
:1032E000D323A7FB02864FEAD02040EA415007FBD8
:1032F00003661EEA0E0F4FEAD12105FB026658BF96
:10330000A6EB0056B6EB00564FEA520E4EEAC37ECD
:1033100018EB0E0E56EB530EBDD518EB02085E41AE
:103320007F1C55F10005B6E74FF480154FF00007FC
:103330004FF000064FF00008ADE7F0BC4FF0000082
:1033400001F1C04101F00041BDE8008111EA0C1F0C
:103350000CEA131500D00CE013EA0C1F00F02580D6
:103360004FF00000F0BC81EA030101F00041BDE82C
:103370000081F0BCBDE8004181EA030100F070B9B2
:10338000F0BCBDE8004170B500F01CF9097EFC3EC0
:1033900000F007B881EA03014FF0000001F000419E
:1033A000704781EA030100F05BB9F0BCBDE8004161
:1033B0004FF0000021497047FFFDFBF9F7F5F4F2EB
:1033C000F0EEEDEBE9E8E6E4E3E1E0DEDDDBDAD8C0
:1033D000D7D5D4D3D1D0CFCDCCCBCAC8C7C6C5C41E
:1033E000C2C1C0BFBEBDBCBBBAB9B8B7B6B5B4B335
:1033F000B2B1B0AFAEADACABAAA9A8A8A7A6A5A420
:10340000A3A3A2A1A09F9F9E9D9C9C9B9A999998E3
:103410009797969595949393929191908F8F8E8E86
:103420008D8C8C8B8B8A8989888887878685858413
:1034300084838382828181800000FF070000F87FFF
:1034400010F0004248BF4042B0FA80F310FA03F196
:103450000AD0C3F11D0303F580634FEA415002EB2C
:10346000035202EBD12170474FF00000704700007B
:10347000DFF848C170B51CEA111E1EBF1CEA131507
:103480009EEA0C0F95EA0C0F00F06F8081EA0304AE
:1034900023EA4C134EEAD47E21EA4C1141F4801108
:1034A00043F48013AE44A1FB024CA0FB0365AEF1D4
:1034B0007F7E361955EB0C05A1FB034C4CF1000344
:1034C000A0FB021C16EB0C06654153F100030942F8
:1034D00018BF46F0010613F4007F0BD14FEA033109
:1034E0004FEA0530340341EA155140EA16506FF0B7
:1034F00003020AE04FEAC3214FEAC520F40241EA81
:10350000555140EA56506FF0020202EB2E4201EB99
:10351000025585EACE710AD05FEA440C18BF24F048
:10352000004450F1000041F1000120EAD47040F263
:10353000FE7C624500D270BDA84214BF4FF08044AB
:103540004FF04044002E08BF0024BEF1806FA8BF9A
:10355000A1F1C041BDE8704080F282804FF00000D0
:1035600001F1C04101F0004170479EEA0C0F0CEAE6
:10357000131518BF95EA0C0F06D04FF0000081EA32
:10358000030E0EF0004170BD00F01CF88900013EF2
:1035900000F007B800F009B84FEA430C5FEA5C5C42
:1035A00008D081EA030100F05BB84FEA410C5FEA02
:1035B0005C5CF6D14FF00000014970470000FF0746
:1035C0000000F87F0EF1020E2EF0030E5EF8046B81
:1035D000364205D4012A43EB030515F5001F12D826
:1035E000012841EB010C1CF5001F0CD80ED14FEA4D
:1035F000D17C15F5001F0CEB4C0C0CF1020C08BF34
:103600004CEBD37C04E04FF0080C01E04FEAD37C94
:103610000CEB4C0526FA05F606F00706B6F1040C8D
:1036200006D20EEB860CBDE870404CF0010C6047F2
:10363000DFE80CF0090B02024FF000414FF00000F0
:10364000A1F5002170BD19461046012851EB010477
:1036500018BFD4F5001484BF002001F0004170BDF4
:103660000808A0F500114FEA3101704791EA030FF5
:1036700010B581F000413FF5E3AC83F0004300F06A
:1036800009B8000010B591EA030F48BF83F000436A
:103690003FF5D6AC841A71EB030C07D212198CF0EB
:1036A000004C43EB0C03001B61EB0C01DFF8A4E1C1
:1036B0004FEA1154A4EB135C1EEA430F18BF9EEAB5
:1036C000445F00F0B08023EA6E03524221EA0451C5
:1036D000C3EB6E0338BF5B1EDCF1200E25D322FA4C
:1036E0000CFE10EB0E0043FA0CFE41EB0E01CCF188
:1036F000200E03FA0EFE10EB0E0051F10001CCF18A
:10370000200E29D412FA0EF201EB0451BDE810404C
:1037100058BF7047401C1CBFB2F1004F70470028D3
:103720000CBF491C20F00100704712EB020E43EB66
:10373000030218BF4FF0010E4EEA4202ACF1200C1A
:10374000DCF11E0E54D943FA0CFE10EB0E0051F1C1
:10375000FF31CCF11E0ED5D50EF1010E12FA0EFE80
:10376000404141EB010101EB445C5FEA5C5C10D934
:1037700010EBDE7001EB045138BFBEF1004FBDE825
:10378000104018BF704700280CBF491C20F00100F2
:10379000704730D24FEAD42C11F5001124F40064A4
:1037A0001BD0B1FA81F20B3AA41AA41ED2F1200365
:1037B000914030FA03F31943904001EBCC71002C97
:1037C00001EB0451BDE81040A8BF704701F1C041B2
:1037D0004FF0000001F000417047B0FA80F310FA9A
:1037E00003F100D110BDE41A173C4805C90AE4E70B
:1037F00001EB045110BD491001EB0451BDE810402C
:103800004FEA300002E04FF0000170474A0008BF65
:103810000042F8D0B2F5001F28BF704701F0004108
:103820004FF0000070479EEA445F07D011EA5E0F38
:10383000BDE8104004BF002100207047BDE81040E3
:1038400070B5FFF7BFFE00BF40DFF63E83F00041DA
:10385000104670470000E0FF90EA010F48BF81F07A
:10386000004100F12E81421A3CBF801A89184FEAAC
:10387000D0524FF07F4C1CEA410FA2EBD15318BF3E
:103880009CEA026F00F03B804FF0004C4CEA0020B5
:103890004CEA012121FA03FC10EB0C0C1ED202F1C0
:1038A000FF325FEA1C2040EBC25038BF70471CF06B
:1038B0007F0F4FEA400C18BFBCF17F4F38BF7047F5
:1038C000C3F12003994008BF20F00100BCF17F4FF5
:1038D00038BF7047A0F1C04000F0E7B84FEA3C00A5
:1038E000000A40EBC25028BF1CF0FF0F4FEA400C0B
:1038F000E6D018BFBCF17F4F38BF7047EAE79CEABB
:10390000026F05D010EA5C0F08BF00F0004070475E
:1039100010B500F084F800BF64FBBE3E4FF47F0C8E
:103920001CEAD0121EBF1CEAD11392EA0C0F93EAD4
:103930000C0F00F0478090EA010F48BF42F48072FC
:103940004FF0004C4CEA00204CEA012102EB03024C
:10395000A0FB0113A2F50002002918BF43F00103E8
:103960005B0028BF4FEA330342EB22425FEA132C8D
:103970004CEBC2502EBFBCEB436FB2F57C0F7047CF
:103980004FEA036CBCF1004F08BF20F00100B2F514
:103990007C0F38BF70470BD582F0FF0212F5803FD5
:1039A000C8BF704700F1C040D8BF00F0004070476A
:1039B00000F5000C5FEA4C0C48BF7047B0F1C04006
:1039C00000F073B890EA010F0CEAD11348BF42F43B
:1039D0008072624538BF634504D280EA010000F07E
:1039E0000040704710B500F01AF800BF8900013E92
:1039F00000F007B800F009B85FEA410C5FEA1C6C00
:103A000008D080EA010000F050B85FEA400C5FEA9D
:103A10001C6CF6D14FF00040A0F5800070470EF10D
:103A2000020E2EF0030E5EF8044B244204D44FEA3B
:103A30004102B2F17F4F11D84FEA4003B3F17F4FFB
:103A40000CD80ED14FEAD07CB2F17F4F0CEB4C0C6E
:103A50000CF1020C08BF4CEBD17C04E04FF0080CD9
:103A600001E04FEAD17C0CEB4C0324FA03F404F0A0
:103A70000704B4F1040C06D20EEB840CBDE8104030
:103A80004CF0010C6047DFE80CF0070802024FF031
:103A90000040A0F5800010BD0846420018BFD2F1DA
:103AA000807288BF00F0004010BDFF2141EAD05075
:103AB000C005704790EA010F48BF81F000413FF513
:103AC000D2AE421A04D882F00042A0EB02001144A8
:103AD0004FEAD0524FF07F4C1CEA410FA2EBD1537A
:103AE00018BF9CEA026F4AD04FF0004C4CEA00200D
:103AF0004CEA012121FA03FCB0EB0C0C0FD412F0BC
:103B0000FE0F36D05FEA4C001DD5001240EBC250CC
:103B100038BF70471CF03F0F18BF70470BE0A2F191
:103B200001025FEA1C2040EBC25038BF70471CF016
:103B30007F0F18BF7047C3F12003994014BF401E88
:103B400020F00100704780084FEA122308BF704739
:103B5000B0FA80FCA2EB0C02CCF1280C60FA0CF05D
:103B600093EA122F04BF00EBC25070474FEAC370B4
:103B70007047130A5FEADC1008BF7047F6E79CEA5B
:103B8000026F04D010EA5C0F08BF0020704710B528
:103B9000FFF745FF40DFF63E81F0004070470CF034
:103BA0000F03092B08BF082000F059800A2B0BD007
:103BB000082B18BF704708BF1CF0400F0AD04FF009
:103BC00000004FF0000170471CF0400F18BF4FF08D
:103BD000004070471CF0100F08D020F0704300F038
:103BE0007F4242EAD3014FEA4370704700F06040E1
:103BF00021F07F4242EA000201F07F4040EA727009
:103C000070474FF0FF0C4CF4E06C1CEA11531CBFE2
:103C10009CEA030C9445C2BFDA4201EB02517047A3
:103C2000002B0DD0BCF1000F0FD0002A01F0004195
:103C3000A4BF41F0E04141F07F614FF000007047C8
:103C400001F000414FF00000704750EA01334FF09F
:103C50009B0C18BF4CF0806C7FF492AA70471CF448
:103C6000801F11D01CF4E02F03D06FEACC31490043
:103C700070474FF04050EFF3008222F0704242EA6A
:103C8000000282F3008870474FF000007047020383
:103C90000405060708090A0B0C0D0E0F101001028F
:103CA00000000000000000000102030406070809EC
:103CB00000000000010203044FBB610567ACDD3F5B
:103CC000182D4454FB21E93F9BF681D20B73EF3F43
:103CD000182D4454FB21F93FE2652F227F2B7A3CBB
:103CE000075C143326A6813CBDCBF07A8807703C74
:103CF000075C143326A6913CC4EB98999999C9BFE7
:103D0000711623FEC671BCBF6D9A74AFF2B0B3BF1B
:103D10009AFDDE522DDEADBF2F6C6A2C44B4A2BFDB
:103D20000D5555555555D53FFF8300922449C23F47
:103D30006E204CC5CD45B73F513DD0A0660DB13F7B
:103D4000EB0D76244B7BA93F11DA22E33AAD903F8D
:103D50000000000000000000783D00080000002086
:103D60005000000028010008C83D00085000002055
:103D7000480700004401000800000040CDCC4C3E44
:103D8000CDCCCC3D00000000000000000000000091
:103D90000000000000000000100000000100000012
:103DA00000127A0000000000000000000000000087
:103DB0000000000000000000000000000000000003
:083DC0005C8FC2F5285CEF3FA7
:04000005080000ED02
:00000001FF
