:020000040800F2
:100000007007002089010008731E00087B15000896
:10001000711E0008AF0200080F2100080000000058
:10002000000000000000000000000000771E000833
:10003000B102000800000000751E0008791E0008CB
:10004000A3010008A3010008A3010008A301000800
:10005000A3010008A3010008A3010008A3010008F0
:10006000A3010008A3010008A3010008A3010008E0
:10007000A3010008A3010008A3010008A3010008D0
:10008000A3010008A3010008A3010008A3010008C0
:10009000A3010008A3010008A3010008A3010008B0
:1000A000A3010008A3010008A3010008A3010008A0
:1000B000A3010008DD1E0008A3010008A301000839
:1000C000A3010008A3010008A3010008A301000880
:1000D000A3010008A3010008A3010008A301000870
:1000E000A3010008A3010008A301000800F002F822
:1000F00000F03AF80AA090E8000C82448344AAF188
:100100000107DA4501D100F02FF8AFF2090EBAE885
:100110000F0013F0010F18BFFB1A43F0010318473B
:10012000C02F0000E02F0000103A24BF78C878C12B
:10013000FAD8520724BF30C830C144BF04680C60ED
:10014000704700000023002400250026103A28BF35
:1001500078C1FBD8520728BF30C148BF0B60704739
:100160001FB51FBD10B510BD00F06CF81146FFF7AC
:10017000F7FF02F031FA00F08AF803B4FFF7F2FF5C
:1001800003BC00F08DF8000009488047094800478B
:10019000FEE7FEE7FEE7FEE7FEE7FEE7FEE7FEE737
:1001A000FEE7FEE704480549054A064B7047000094
:1001B000DB1E0008ED000008700100207007002021
:1001C00070030020700300204FF0000200B51346BA
:1001D00094469646203922BFA0E80C50A0E80C5067
:1001E000B1F12001BFF4F7AF090728BFA0E80C5018
:1001F00048BF0CC05DF804EB890028BF40F8042B11
:1002000008BF704748BF20F8022B11F0804F18BF7D
:1002100000F8012B704770477047704710B500F029
:1002200009F8006810BD10B5044600F003F804603A
:1002300010BD0000004870471001002000487047C2
:10024000100100207546FFF7F9FFAE46050069462C
:10025000534620F00700854618B020B5FFF7A2FFEF
:10026000BDE820404FF000064FF000074FF00008B7
:100270004FF0000B21F00701AC46ACE8C009ACE838
:10028000C009ACE8C009ACE8C0098D46704710B59C
:100290000446AFF300802046BDE81040FFF76DBF75
:1002A00001491820ABBEFEE7260002007047FEE7BA
:1002B000704772B6FEE7000070B5044600F004F91E
:1002C0000546601C02D004480078044400F0FCF8A5
:1002D000401BA042FAD370BD100000202DE9F84F5A
:1002E000DFF8B8910024A9F1040B23460F2709F188
:1002F000040AABF1040EC9E00125A5402A40AA4238
:100300007DD1674ED1F804C0ACEB0608B44532D0BD
:1003100014DCBCF1030F3AD009DCBCF1000F2AD089
:10032000BCF1010F1CD0BCF1020F31D11DE0BCF1BA
:10033000110F17D0BCF1120F2AD119E0B8F5881FA0
:1003400019D006DCB8F5803F15D0B8F5801F1FD155
:1003500011E0B8F5001F0ED0B8F5041F18D10AE05F
:10036000CB6815E0CB681B1D12E0CB6808330FE0AB
:10037000CB680C330CE08B682BB1012B4FF00803DA
:1003800003D0456104E0042302E0056100E000239E
:10039000FF2A01D8064601E000F104064FEA840571
:1003A00001D9A5F12005D6F8008007FA05FC28EA56
:1003B0000C0803FA05F548EA0508C6F800804D6800
:1003C000ED0062D5374DAE6946F00106AE61AD690C
:1003D00024F0030605F001050095334D06EB050CEE
:1003E000DCF80850A607360F07FA06F825EA0805D4
:1003F000DFF8B880404503D14FF0000817E044E033
:10040000DFF8AC80404502D14FF001080FE0DFF883
:10041000A480404502D14FF0020808E0DFF8988040
:10042000404502D14FF0030801E04FF0040808FAFC
:1004300006F848EA0508CCF808804D68D9F800604D
:10044000ED024D4601D5164300E096432E604D68FF
:10045000DAF80060AD02554601D5164300E0964338
:100460002E604D68DBF80060AD035D4601D5164394
:1004700000E096432E604D68DEF80060ED0375469F
:1004800001D5164300E096432E60641C0D682A4691
:10049000E5407FF431AFBDE8F88F0000080401406B
:1004A000000011100010024000000140000801404F
:1004B000000C014000100140001401400AB101612C
:1004C00070470904FBE7000001488068704700009E
:1004D0001000002070B5040025D094F83D000025E0
:1004E00020B984F83C50204600F07EFA242084F89D
:1004F0003D002068016821F0010101602068016869
:1005000041F4004101602068016821F4004101606C
:1005100000F0C6FB4D4A6168914201D84C4900E0A9
:100520004C49884201D2012070BD4B492368B0FB81
:10053000F1F15E6826F03F060E435E606368934209
:1005400006D94FF4967359434FF47A73B1FBF3F124
:100550002368491C1E6A26F03F0631431962616810
:10056000914210D84900401EB0FBF1F2521CC2F378
:100570000B02042A01D2042022E0B0FBF1F0401C5F
:10058000C0F30B001CE0A268F2B301EBC10303EB64
:100590000116431EB3FBF6F35B1C43F480431B05BB
:1005A00049D092B301EBC10202EB0111401EB0FB36
:1005B000F1F0401CC0F30B0040F4804040F40040D8
:1005C0002168CA694CF6FF739A431043C861D4E9A5
:1005D000071001432068026822F0C0021143016045
:1005E000D4E9030101432068826848F2FF339A434B
:1005F00011438160D4E9050108432168CA6822F0EB
:10060000FF021043C86001E00EE016E020680168B8
:1006100041F0010101602564202084F83D0025633C
:1006200084F83E50002070BD01EB4106431EB3FB31
:10063000F6F35B1CB3E70120C2E701EB4101401E6A
:10064000B0FBF1F0401CC0F30B00B7E7A08601003F
:1006500080841E0000093D0040420F002DE9FF4F3D
:1006600083B00025DDE910799A4693460446DDF80B
:1006700048800095FFF728FF064694F83D002028A3
:100680007CD11923012288492046009601F08CF87C
:100690000028F5D194F83C0001286FD0012084F89F
:1006A0003C0020680168C90703D1016841F00101DD
:1006B00001602068016821F400610160222084F853
:1006C0003D00402084F83E0025646762A4F82A902B
:1006D000608D20857548E062CDE9008653465A4614
:1006E0002046049900F062FF00287CD1208DDFF8BD
:1006F000C091202768B1012814D002282068016821
:100700001ED041F4806101602068416980690090D9
:10071000BCE02068416981690091016841F4007181
:100720000160B3E02068016821F48061016072B665
:100730002068416981690091016841F400710AE013
:1007400041F40061016072B62068416981690091DD
:10075000016821F48061016062B697E0032865D8E2
:1007600001280CD0022843464FF00002494620469B
:1007700000960BD001F018F8A8BB0CE091E03246CF
:100780004146204601F0B6F868BB72E001F00CF873
:1007900048BB72B633E02068016821F480610160D3
:1007A00072B620680069616A0870606A401C606205
:1007B000208D401E2085608D401E60853D4846F29C
:1007C000A8110068B0FBF1F0C0EBC00000EB8000A6
:1007D0000090401E009007D020684069C043400749
:1007E0000DD50098F5E727E044F8305F6773A573EF
:1007F000206940F02000206162B625731CE020686B
:10080000016841F40071016020680069616A087044
:10081000606A401C6062218D491E2185618D491EE0
:10082000618562B621680969017026E03246414659
:10083000204601F05FF818B1012007B0BDE8F08F45
:1008400020680069616A0870606A401C6062208DDF
:10085000401E81B22185608D401E608520684269FE
:10086000D243520712D4032903D1016821F48061D5
:10087000016020680069616A0870606A401C6062FB
:10088000208D401E2085608D401E6085208D0028B3
:100890007FF464AF84F83D7084F83E5084F83C5097
:1008A000CBE70220C9E70000020010000000FFFFB4
:1008B000040001001C0000202DE9FF4F83B09A4680
:1008C000DDE9119793460446DDF84080FFF7FCFD13
:1008D000054694F83D0020287FD119230122404984
:1008E0002046009500F060FF002876D194F83C0087
:1008F000012872D0012084F83C0020680168C907F3
:1009000003D1016841F0010101602068016821F410
:1009100000610160212084F83D00402084F83E0001
:1009200000262664C4F82480A4F82A90608D2085CF
:100930002C48E062CDE9007553465A46204604999A
:1009400000F0B2FE70B930E02A463946204601F088
:1009500009F858B1206C042804D12068016841F4DA
:1009600000710160012007B0BDE8F08F606A216866
:1009700000780861606A401C6062218D491E89B25E
:100980002185628D521E628522685369DB435B07B5
:100990000BD469B100781061606A401C6062208DE0
:1009A000401E2085608D401E6085208D0028CBD1A3
:1009B0002A463946204600F0CBFE0028CAD154F81A
:1009C0003D0B016841F400710160202004F81E090C
:1009D000E67766770020C6E7FFE70220C3E700005E
:1009E000020010000000FFFF10B586B0002100914A
:1009F00001910291039100680F4988421AD10F4C6E
:100A0000A06940F00800A061A069694600F00800F4
:100A10000490C02000901220019003200390084809
:100A2000FFF75CFCE06940F40010E061E06900F46D
:100A30000010049006B010BD0054004000100240A9
:100A4000000C0140024881680278114481607047BF
:100A500010000020074810B5016841F01001016046
:100A6000032000F075F80F2000F006F800F024F8DD
:100A7000002010BD0020024070B50D4D04464FF41B
:100A80007A712878B1FBF0F00A490968B1FBF0F0FF
:100A900000F0CCFA48B9102C07D200222146501E93
:100AA00000F036F800206C6070BD012070BD0000C1
:100AB000100000201C0000200C4808B5816941F09E
:100AC00001018161816901F001010091C16941F079
:100AD0008051C161C06900F08050009004484168B5
:100AE00021F0E06141F00071416008BD001002405A
:100AF00000000140002809DB00F01F0201219140A5
:100B00004009800000F1E020C0F8001170470000AB
:100B1000F0B40E4B1B680C46C3F30223C3F1070568
:100B2000042D00D90425191D072901D2002300E056
:100B3000DB1E012606FA05F1491E214099409E4020
:100B4000761E16403143F0BC01F0F6BA0CED00E021
:100B5000064900F0070208684FF6FF03184040EA14
:100B60000220034A10430860704700000CED00E0CB
:100B70000000FA052DE9F0470F46050061D0434E0D
:100B8000306800F00700B84209D2306820F0070052
:100B900038433060306800F00700B84251D128680F
:100BA0003B4C810712D5400703D5606840F4E060F4
:100BB00060602878000703D5606840F4605060608A
:100BC0006068A96820F0F000084360602878C007DA
:100BD00028D06868012810D02168022810D0890721
:100BE00000292EDA616821F0030101436160FFF7FB
:100BF0006BFC804641F288390DE021688903EFE7FC
:100C00008901EDE7FFF760FCA0EB0801494502D937
:100C10000320BDE8F0876068696800F00C00B0EB65
:100C2000810FEFD1306800F00700B8420BD930686F
:100C300020F0070038433060306800F00700B84209
:100C400001D00120E5E72878400705D56068E9680C
:100C500020F4E060084360602878000706D56068EB
:100C6000296920F4605040EAC100606000F028F873
:100C70006168084AC1F30311515CC8400649086025
:100C800006480068FFF7F8FE0020C2E70020024097
:100C900000100240243000081C0000201400002036
:100CA0000448054900684968044AC1F30221515CBF
:100CB000C84070471C00002000100240343000087B
:100CC0000E4A51680E4801F00C03042B11D0082B7A
:100CD0000FD10C48C1F38343C903C05C0AD55168E6
:100CE000084AC1F34041921E515C054A5043B0FB93
:100CF000F1F070470449484370470000001002407B
:100D000000127A001430000800093D002DE9F84F68
:100D1000040070D02078C04DC00749D06868C0F387
:100D20008100012807D06868C0F38100022809D13A
:100D30006868C00306D52868800339D56068002834
:100D4000E7D035E06068B0F5803F0BD010B1B0F56A
:100D5000A02F11D0286820F480302860286820F463
:100D6000802002E0286840F480302860606890B1FC
:100D7000FFF7AAFB06460AE0286840F480202860B6
:100D8000F0E700BFFFF7A0FB801B642873D828683A
:100D90008003F7D50CE0FFF797FB064605E000BFA0
:100DA000FFF792FB801B6428F0D828688003F7D4F3
:100DB00020789A4E80074FF001094FF0000839D58E
:100DC000686810F00C0F07D06868C0F38100022833
:100DD00009D16868C00306D42868800714D5206943
:100DE000012808D110E02069B0B1C6F80090FFF7E3
:100DF0006BFB074605E00AE1FFF766FBC01B022814
:100E0000C4D828688007F7D52868616920F0F80001
:100E100040EAC10028600DE0C6F80080FFF754FBEF
:100E2000074604E0FFF750FBC01B022823D82868C0
:100E30008007F7D4207800072CD57948A169D9B16B
:100E4000C0F80090FFF740FB074604E0FFF73CFBCB
:100E5000C01B02280FD8686A8007F7D571484FF485
:100E6000FA510068B0FBF1F0009000BF0098411EFD
:100E70000091FAD20EE080E0C0F80080FFF724FB7A
:100E8000074604E0FFF720FBC01B022875D8686AFC
:100E90008007F7D42078400760D5E8690027C000B4
:100EA00008D4E86940F08050E861E869012700F063
:100EB000805000905C480168C90513D401688346DE
:100EC00041F480710160FFF7FFFA824606E000BF3F
:100ED000FFF7FAFAA0EB0A0064284ED8DBF800000E
:100EE000C005F5D5E06801280AD008B1052813D05F
:100EF000286A20F001002862286A20F0040002E03D
:100F0000286A40F001002862E06841F2883B98B10D
:100F1000FFF7DAFA82460BE0286A40F00400286204
:100F2000EEE700BFFFF7D0FAA0EB0A0159455AD807
:100F3000286A8007F6D50CE0FFF7C6FA824605E07E
:100F4000FFF7C2FAA0EB0A0159454CD8286A80077E
:100F5000F6D41FB1E86920F08050E861E06988B3F9
:100F60006968C1F38101022944D00228C6F8608073
:100F700004D0FFF7A9FA044638E034E0FFF7A4FAFA
:100F8000074604E0FFF7A0FAC01B02282BD8286808
:100F90008001F7D4206AB0F5803F05D16868A16868
:100FA00020F4003008436860D4E908010843696808
:100FB00021F4741108436860C6F86090FFF784FA62
:100FC000044606E025E000BFFFF77EFA001B02287A
:100FD00009D828688001F7D51BE000BFFFF774FA35
:100FE000001B022802D90320BDE8F88F2868800181
:100FF000F4D40EE00128F7D06868226A00F480314A
:10100000914204D1616A00F47010884201D001203D
:10101000EAE70020E8E7000000100240000042423A
:10102000800442421C0000200070004010B5401EA9
:10103000B0F1807F01D3012010BD4FF0E02460614A
:101040000F21601701F078F80020A06107202061CF
:10105000002010BD7047704770B590F83C20012A01
:1010600026D0012480F83C40022280F83D2003680D
:101070005A689D6822F070060A6832435A600D4B28
:1010800002689A4208D0B2F1804F05D00A4B9A42CA
:1010900002D00A4B9A4204D1496825F080031943D3
:1010A000916080F83D40002180F83C10084670BDFA
:1010B000022070BD002C01400004004000080040E8
:1010C00010B5040003D094F83D0010B107E00120F2
:1010D00010BD002084F83C00204600F01FF80220DC
:1010E00084F83D00211D206800F0FEFE012084F8F8
:1010F000460084F83E0084F83F0084F8400084F8FD
:10110000410084F8420084F8430084F8440084F8E5
:10111000450084F83D00002010BD000008B50168BE
:101120001048B1F1804F14D00F4A914219D1C169D2
:1011300041F00201C161C069002200F0020000908C
:1011400011461D20FFF7E4FCBDE808401D20FFF715
:10115000D1BCC16941F00101C161C06900F0010069
:10116000009008BD001002400004004090F83D10BF
:10117000012901D001207047022180F83D1001684B
:10118000CA6842F00102CA6000680B49884208D070
:10119000B0F1804F05D00949884202D00849884201
:1011A00004D1816801F00701062903D0016841F0EC
:1011B0000101016000207047002C01400004004044
:1011C0000008004070B5044690F83C000025012856
:1011D00017D0012684F83C60022084F83D00206886
:1011E000826822F0770222F47F42826008685028E9
:1011F00038D00DDC20284FD005DC90B3102811D159
:101200004AE0022070BD302846D040280AD13BE099
:1012100060282FD070280DD0B0F5805F03D0B0F5D6
:10122000005F12D0012584F83D60002084F83C0066
:10123000284670BDCB68D1E90121206800F090FEFE
:101240002068816841F0770109E0CB68D1E901218C
:10125000206800F085FE2068816841F4804181604B
:10126000E1E719E0CA684968206800F02DFF5021C5
:10127000206806E0CA684968206800F036FF6021EF
:10128000206800F077FECEE7CA684968206800F061
:101290001BFF40212068F4E7226801461046F0E772
:1012A00070472DE9F04104460068C66805694FF0B3
:1012B0000007A90713D5B10711D5F91E0161012057
:1012C0002077206880698007204602D0FFF7E8FF7A
:1012D00004E000F0A3F8204600F035F9277768070E
:1012E00016D5700714D521686FF00400086102203C
:1012F00020772068806910F4407F204602D0FFF7F5
:10130000CFFF04E000F08AF8204600F01CF92777B0
:10131000280715D5300713D521686FF0080008613C
:10132000042020772068C0698007204602D0FFF79C
:10133000B7FF04E000F072F8204600F004F92777C8
:10134000E80616D5F00614D521686FF01000086184
:10135000082020772068C06910F4407F204602D022
:10136000FFF79EFF04E000F059F8204600F0EBF88C
:101370002777E80708D0F00706D021686FF0010052
:101380000861204600F0E0F8280608D5300606D5AA
:1013900021686FF0800008612046FFF75BFE680659
:1013A00008D5700606D521686FF040000861204618
:1013B00000F0E2F8A8060AD5B00608D521686FF05B
:1013C000200008612046BDE8F041FFF744BEBDE8BB
:1013D000F081000000B585B00021009101910291DB
:1013E00003910068B0F1804F11D10A48816941F042
:1013F000040181618069694600F0040004900C20BA
:1014000000900220019003900348FEF767FF05B0AB
:1014100000BD00000010024000080140704770B598
:10142000044690F83C0000260D4601280FD001200C
:1014300084F83C006AB1042A1DD0082A2FD00C2A57
:101440003FD00126002084F83C00304670BD0220C9
:1014500070BD206800F096FD2068816941F00801A8
:1014600081612068816921F00401816120688169BE
:101470002A69114311E0206800F0ACFD2068816901
:1014800041F4006181612068816921F4806181619A
:10149000206881692A6941EA02218161D2E72068D6
:1014A00000F0C4FD2068C16941F00801C1612068F5
:1014B000C16921F00401C1612068C1692A69114331
:1014C00011E0206800F0DEFD2068C16941F4006190
:1014D000C1612068C16921F48061C1612068C1696E
:1014E0002A6941EA0221C161ACE710B5040003D0CA
:1014F00094F83D0010B107E0012010BD002084F8F1
:101500003C00204600F01EF8022084F83D00211D1A
:10151000206800F0E9FC012084F8460084F83E00D1
:1015200084F83F0084F8400084F8410084F84200C9
:1015300084F8430084F8440084F8450084F83D00B2
:10154000002010BD7047704710B5006808498842F8
:101550000DD1084C207828B100F008FBC4E9020145
:1015600000202070D4E9020100F028FA606010BD6C
:1015700000040040000000207047FEE701684A694F
:10158000D24352050FD46FF480624A61002140F8C3
:10159000301F202242738173026942F0040202610B
:1015A0000173012070470020704700002DE9F84FBB
:1015B0000446006889460B9D01689846174641F429
:1015C000806101602068016841F4807101600095CC
:1015D0004FF0011B0022594620460A9B00F0E4F818
:1015E0004FF4007A40B120680068C00501D5C4F806
:1015F00040A00320BDE8F88F216809F0FE000861D3
:101600002B46284920460A9A00F016F9F0BB2068BC
:101610004169806900902A4620460A9900F0A2F9A3
:1016200040B1206C04283AD12068016841F400716F
:10163000016034E0FEB2B8F1010F09D02168380A28
:1016400008612A4620460A9900F08CF90028E8D162
:10165000206806612A4620460A9900F083F900288E
:10166000DFD12068016841F480710160009500229B
:10167000594620460A9B00F097F80028B3D121680C
:1016800009F0FF0040F00100086100E007E02B4690
:10169000044920460A9A00F0CFF80028AAD0012079
:1016A000A8E70000020001002DE9F84304460068A5
:1016B0000D46DDE9089701689846164641F48071A9
:1016C00001604B4600224FF001112046009700F0C8
:1016D0006BF848B120680068C00502D54FF400706F
:1016E00020640320BDE8F883216805F0FE0008614E
:1016F0003B464A461549204600F09EF888B92068C6
:101700004169806900903A464946204600F02AF92E
:1017100048B1206C042804D12068016841F40071AC
:1017200001600120DEE7F5B2B8F1010F09D02168B0
:10173000300A08613A464946204600F013F900286D
:10174000E7D1206805610020CCE70000020001001D
:1017500070B516460D4604461EE02046FFF70EFF04
:1017600008B1012070BD681C16D0FEF7ADFE801BCD
:10177000A84200D885B920684069C04340070BD50E
:10178000002044F8300F20216173A073216941F0DB
:10179000200121612073E4E720684069C0434007CD
:1017A000DBD4002070BD00002DE9F04798461746B5
:1017B0000D460446C1F30746DDF820902AE000BF3D
:1017C000B8F1FF3F26D0FEF77FFEA0EB09014145AF
:1017D00002D8B8F1000F1DD12068012E16D0806903
:1017E00025EA00000004000C12D00020B84211D1FC
:1017F000002044F8300F20216173A073216941F06B
:101800002001216120730120BDE8F0874069E7E7EE
:101810000120EBE72068012E0AD0806925EA00004C
:101820000004000C06D00020B842C9D00020EBE72D
:101830004069F3E70120F7E72DE9F047984616469F
:101840000D4604464FF000094FF0200AC1F3074748
:1018500023E020684069C043400515D42068016832
:1018600041F40071016021686FF480604861C4F840
:10187000309084F83DA084F83E90216C41F0040142
:10188000216484F83C9021E0701C06D0FEF71CFE19
:10189000A0EB0800B04203D816B1012F1FD021E001
:1018A0002068012F15D0806925EA00000004000C93
:1018B00018D000BF44F8309F84F80DA084F80E9033
:1018C000216941F02001216184F80C900120BDE8DC
:1018D000F087406925EA00000004000CEAD1206886
:1018E000406901E02068806925EA00000004000CDE
:1018F000AFD1ECE72DE9F041002590460E460446B5
:10190000202728E04069C043C0060CD454F8301B9F
:101910006FF01000486144F810596777A577206A86
:101920002062257714E0FEF7CFFDA0EB0800B0425F
:1019300000D886B920684069C04340060BD544F8FA
:10194000305F6773A573206940F020002061257324
:101950000120BDE8F08120684169C9434906D1D41E
:101960000020F6E770B516460D4604461EE02046F8
:10197000FFF704FE08B1012070BD681C16D0FEF709
:10198000A3FD801BA84200D885B920684069C043E8
:1019900000060BD5002044F8300F20216173A0739E
:1019A000216941F0200121612073E4E7206840694A
:1019B000C0430006DBD4002070BD00007CB50D469E
:1019C00011490446881ECDE90001831E021F811FB4
:1019D000083800F01FF80C480A38B0F90A00C1179F
:1019E00000EB5140C0134FF4FA61484301F088F80E
:1019F000064A074B01F09CF822462B4600F030FEC9
:101A0000BDE87C4000F0FABD2A000020FCA9F1D21C
:101A10004D62503F2DE9F04F85B0012503AE64249F
:101A20000096CDE9015498469346894682462B4656
:101A30003B22D0214C48FEF711FE04AF0097CDE9C0
:101A4000015401233C22D0214748FEF707FE9DF8B0
:101A500010009DF80C10012340EA0120AAF80000B4
:101A60000096CDE901543D22D0213F48FEF7F6FD16
:101A70000097CDE9015401233E22D0213A48FEF7D8
:101A8000EDFD9DF810009DF80C10012340EA0120A7
:101A9000A9F800000096CDE901543F22D021324838
:101AA000FEF7DCFD0097CDE9015401234022D0214F
:101AB0002D48FEF7D3FD9DF810009DF80C10012372
:101AC00040EA0120ABF800000096CDE90154432222
:101AD000D0212548FEF7C2FD0097CDE9015401232E
:101AE0004422D0212048FEF7B9FD9DF810009DF852
:101AF0000C10012340EA0120A8F800000096CDE96F
:101B000001544522D0211848FEF7A8FD0097CDE9E1
:101B1000015401234622D0211348FEF79FFD9DF872
:101B200010009DF80C10012340EA01200E99472275
:101B300008800096CDE90154D0210B48FEF78EFDB8
:101B40000097CDE9015401234822D0210648FEF731
:101B500085FD9DF810009DF80C1040EA01200F99BA
:101B6000088005B0BDE8F08F2C0000207CB512493C
:101B7000881ECDE90001831E021F811F0838FFF770
:101B800049FF0D4D0A3DB5F9000000F0B9FF0646CA
:101B90000C46B5F9020000F0B3FF3246234600F0D0
:101BA0004DFC064A064B00F017FE02B00022BDE8CD
:101BB0007040044B00F0BCBF2A0000206E861BF072
:101BC000F9210940008066402DE9FF41012603AD5F
:101BD0008DF80C6064240095CDE90164804633469D
:101BE0006B22D021FEF768FE002848D16420FEF762
:101BF00063FB00208DF80C000095CDE90164012302
:101C00006C22D0214046FEF757FE002837D16420D1
:101C1000FEF752FB09208DF80C000095CDE9016418
:101C200001231922D0214046FEF746FE002826D186
:101C300006208DF80C000095CDE9016401231A22DD
:101C4000D0214046FEF738FE002818D118278DF81D
:101C50000C700095CDE9016401231B22D021404680
:101C6000FEF72AFE00280AD18DF80C700095CDE908
:101C7000016401231C22D0214046FEF71DFE04B062
:101C8000BDE8F0812DE9F04385B00024214800949F
:101C9000019402940394816941F02001816181697A
:101CA00001F020010491816941F0040181618169A1
:101CB00001F004010491816941F0080181618069AA
:101CC000DFF8548000F008004FF4C0450490002273
:101CD00029464046FEF7F2FBDFF84090EF10002265
:101CE00039464846FEF7EAFB009502260125039691
:101CF000CDE9015469464046FEF7F0FA0097039695
:101D0000CDE9015469464846FEF7E8FA05B0BDE85A
:101D1000F083000000100240000C01400008014068
:101D20000D4810B50B4901600C49416000214FF48A
:101D300080428160C0E9031241618161C161016239
:101D4000FEF7C8FB002803D0BDE81040FEF7B1BA8B
:101D500010BD0000005400402C000020A0860100AF
:101D600010B58EB000240794089409940A940B943B
:101D70001C2168460C94FEF727FA21484FF0804159
:101D800001604721C0E901146321C0E903148461A3
:101D9000FFF796F908B1FEF78CFA4FF480500790E0
:101DA00007A91748FFF70EFA08B1FEF782FA1448A0
:101DB000FFF79BFB08B1FEF77CFA0B940BA91048C8
:101DC0000C94FFF749F908B1FEF773FA6020CDE9EA
:101DD000000402940822694609480494FFF71FFB97
:101DE00008B1FEF766FA0C2269460548FFF717FBB3
:101DF00008B1FEF75EFA0248FFF7ECFA0EB010BD2C
:101E00008000002010B586B000241848009401948A
:101E10000294039404941449059401604721C0E995
:101E2000011440F2E731C0E903148461FFF748F977
:101E300008B1FEF73EFA4FF48050009069460B4817
:101E4000FFF7C0F908B1FEF734FA049404A9074873
:101E50000594FFF701F908B1FEF72BFA0348FFF7E5
:101E600085F906B010BD000000040040C800002045
:101E7000FEE7FEE770477047FEF7E4BD30B58FB070
:101E800028216846FEF7A0F914210AA8FEF79CF95C
:101E900001210804CDE900100024029402250491D8
:101EA000CDE907504FF4E01009906846FEF72EFF89
:101EB00008B172B6FEE70F20CDE90A054FF4806045
:101EC000CDE90C4002210AA80E94FEF753FE00282B
:101ED00001D072B6FEE70FB030BD70470148FFF782
:101EE000E0B90000C8000020F0B50268194B1A4C98
:101EF0001A4D4FF08047984205D0B84203D0A04217
:101F000001D0A84203D122F070064A6832439842B9
:101F100005D0B84203D0A04201D0A84203D122F498
:101F20004074CA6822434C6922F080022243026056
:101F30008A68C2620A688262984201D109690163B3
:101F4000012141610169C90703D0016921F0010143
:101F50000161F0BD002C0140000400400008004079
:101F600010B5846842EA032224F47F440A432243E2
:101F7000826010BD826822F070020A4342F00701BD
:101F80008160704730B5036A026A22F00102026282
:101F90004268846924F073050C682C4323F0020521
:101FA0008B682B430A4DA8420BD123F00805CB6860
:101FB00022F440722B434D6923F0040315438A69D0
:101FC0002A434260846149684163036230BD000076
:101FD000002C014030B5026A036A23F0100303624B
:101FE000436884690D6824F4E64444EA05248D6856
:101FF00022F0200242EA05120B4DA8420ED1CD6814
:1020000022F0800242EA05124D6923F4406343EA5C
:1020100085038D6922F0400243EA850343608461B1
:1020200049688163026230BD002C014030B5036A0B
:10203000026A22F4807202624268C46923F4007367
:1020400024F073050C682C438D6843EA05230C4D7E
:10205000A8420ED1CD6823F4006343EA05234D69FD
:1020600022F4405242EA05128D6923F4806342EA69
:1020700005124260C4614968C163036230BD00005B
:10208000002C014030B5046A026A22F480520262D8
:102090004268C3690D6823F4E64343EA05238D686B
:1020A00024F4005444EA0534064DA84204D14D6995
:1020B00022F4804242EA85124260C36149680164A9
:1020C000046230BD002C014010B5036A046A24F09C
:1020D00001040462846924F0F00444EA021423F049
:1020E0000A020A438461026210BD10B5036A046AE1
:1020F00024F010040462846923F0A00324F47044E3
:1021000044EA023243EA01118261016210BDFEE736
:10211000490050EAC12018BF04204A0D18BF40F002
:10212000010040F2FF72B2EB515F08BF40F00200C5
:10213000012808BF052070470907090E002804DBA5
:1021400000F1E02080F80014704700F00F0000F16B
:10215000E02080F8141D70472DE9F0414F1E00EB80
:10216000C7010446D1E9000115461E4637F00602B4
:102170000DD02A46334600F0DBFC7F1E04EBC7037C
:10218000D3E9002300F06CFA37F00602F1D1022FF8
:1021900025D0042F13D0062F18BFBDE8F0812A46A2
:1021A000334600F0C5FCD4E90A2300F059FA2A4668
:1021B000334600F0BDFCD4E9082300F051FA2A466A
:1021C000334600F0B5FCD4E9062300F049FA2A466C
:1021D000334600F0ADFCD4E9042300F041FA2A466E
:1021E000334600F0A5FCD4E9022300F039FA2A4670
:1021F000334600F09DFCD4E90023BDE8F04100F037
:102200002FBA012200F0BFBE00F02ABA024A002015
:10221000110700F0B8BE000001FDFFFF2DE9F84FE7
:1022200004460D4621F0004000917349814211DCC3
:102230007249884201DC06D12CB120462946BDE80E
:10224000F84FFFF7DEBF6E48002DCCBF6D496E49D9
:10225000BDE8F88F6D49814211DD6D498142D8BFDB
:102260004FF0FF366DDD20462946FFF751FF042869
:1022700008BFFFF7CBFF20462946BDE8F88F654928
:10228000654F25F00045814233DD6449814219DD07
:10229000002632464FF080432046294600F0E0F900
:1022A00080468A4601222046294600F06CFE002224
:1022B0003B4600F047FD4246534600F08DFA044687
:1022C0000D463EE001260022BA463B4620462946FE
:1022D00000F0C6F980460F460022534620462946A4
:1022E00000F030FD42463B4600F076FA04460D46CB
:1022F00027E04B4981421BDDDFF828A1022600229E
:1023000053462046294600F013FC00223B4600F0CD
:10231000A7F980460F46002253462046294600F082
:1023200011FD42463B4600F057FA04460D4608E0D0
:10233000032622462B4600203B4900F04DFA044676
:102340000D4622462B461046194600F0F1FB8B46FF
:10235000824602460B4600F0EBFB07460246334836
:1023600088460B4606217844FFF7F6FE52465B4648
:1023700000F0DEFB82462E488B463A464346052156
:102380007844FFF7E9FE3A46434600F0D1FB0246A7
:102390000B46002E504659460CDA00F061F92246F1
:1023A0002B4600F0C5FB01B022462B46BDE8F04F9E
:1023B00000F0BCBC00F054F922462B4600F0B8FBFC
:1023C0001C4A7A4402EBC603D3E9002300F0BAFCAE
:1023D00022462B4600F0B6FC174A7A4402EBC603AD
:1023E000D3E9002300F0A2FC009A002AB8BF81F0D4
:1023F0000041BDE8F88F0000000010440000F07FAD
:10240000182D4454FB21F93FFB21F9BF0000DC3FAC
:102410000000203E0000F33F0000F03F0000E63FD8
:10242000008003400000F83F0000F0BF3E0D0000B8
:10243000FC0C00009A0C0000620C00002DE9F04D2D
:102440009446CCF1000423F000464CEA0404594FB2
:1024500046EAD4749A46884621F00042BC4206D827
:10246000454240EA050442EAD474BC4204D9BDE8BE
:10247000F04D6246FFF7C8BEAAF14055A5F17F6551
:1024800055EA0C040BD0022404EAAA744A4DDFF882
:102490002CE144EAD87452EA000B04D00CE0BDE809
:1024A000F04DFFF7BBBE002C14BF012CBDE8F08D32
:1024B000022C30D0032C32D056EA0C0B0AD0BE428C
:1024C00020D1BA4209D126F0804622F0804233461C
:1024D000114617E000291ADB25E0DFF8E4B0FB44E1
:1024E000002C04BFDBE90001BDE8F08D012C02BF28
:1024F000DBE9000181F00041BDE8F08D022C0AD03B
:10250000032C0CD0BA4212D1B8F1000F0BDA2A48D2
:102510002C49BDE8F08D28462B49BDE8F08D2846B2
:102520007146BDE8F08D24482849BDE8F08D921B26
:1025300012153C2AC4BF204F244E10DCBAF1000F04
:10254000BEBF12F13C0F00273E4608DB624600F09A
:1025500043F921F00041FFF761FE07460E4694B1B2
:10256000012C08BF86F000460DD0194A194B022CE9
:102570003846314615D000F0E5FB2A46BDE8F04D5F
:10258000114B00F0DFBB002213463846314600F005
:102590007BFA04BF0220FDF746FE38463146BDE80F
:1025A000F08D00F0CFFB2A46BDE8F04D064B00F061
:1025B000BDBB00000000F07F182D4454FB2109C072
:1025C000F60B0000FB21F9BFFB210940FB21F93F7D
:1025D000075C143326A6A13CFEF73CFAFFF74EFC3D
:1025E000FFF750FBFFF7BCFBFFF79AFBFFF70AFC76
:1025F0000148FFF7E9FAFEE72C00002021F0004235
:10260000A2F16052B2F5801F01F0004328BFD2F161
:102610007F6C0BD95FEA001C43EAC20242EB5070A8
:1026200018BF704728BF20F001007047B2F5801F27
:10263000BCBF184670474FEA410C1CF5001F02D280
:10264000084600F069BC70B500F01CFB0000008972
:10265000FFF7F6BF4FF00040A0F580007047000084
:1026600010B591EA030F48BF83F0004300F1728375
:10267000841A71EB030C05D2121943EB0C03001BF7
:1026800061EB0C01DFF824E14FEA1154A4EB135C79
:102690001EEA430F18BF9EEA445F73D023EA0E037D
:1026A000DCF1200E21EA045143F4801332D322FAE4
:1026B0000CFE10EB0E0023FA0CFE41EB0E01CCF1E8
:1026C000200E03FA0EFE10EB0E0051F10001B1F5E1
:1026D000801FCCF1200E32D201EB045112FA0EF21F
:1026E000BDE8104058BF7047401C38BF5FEA420247
:1026F00018BF7047002814BF20F0010041F100010D
:102700004FEA410313F5001F38BF7047A1F1C041E4
:1027100000F006BB012A43EB0302ACF1200CDCF114
:102720001F0E32BF4FF0000E23FA0CF310EB030024
:1027300041EB0451B4EB115FD0D0A1EB045101F592
:10274000801149085FEA300001EB04510ED350F1CB
:10275000000038BF12FA0EFE08D1BDE81040C9E7EC
:10276000401C38BF5FEA4202CAD1C3E7BDE810404F
:102770004FEA410313F5001F38BF7047A1F1C04174
:1027800000F0CEBA9EEA445F08D011EA5E0FBDE8C1
:10279000104004BF01F0004100207047BDE8104028
:1027A00070B500F06FFA00BF64FBBE3E0000E0FFB2
:1027B00002494FF0000000F0B4BB00BF0000F87FFA
:1027C000491058BFC1F140415B1058BFC3F14043AD
:1027D0008B42EFF3008070472DE9C04130B4DFF841
:1027E000A0C23CEA111418BF3CEA131400F0EC80BC
:1027F00081EA03051CEA111444EAD57418BF1CEAE7
:10280000131500F0C780A4EB05044FF0004545EA1E
:10281000C12145EAC32341EA505143EA525304F12E
:102820007F74994204F500344FEAC0204FEAC22277
:1028300008BF904200F09C804FEA13650FF24016EB
:10284000765D4FEA134506FB05F7C7F1807706FB77
:1028500007F74FEAD737A7FB03687642C8F58038F9
:10286000A7FB06CE38BFA8F1010807FB08E64FF02A
:10287000000EA6FB028CE6FB03CEDCF1000CCEF1D1
:10288000004E38BFAEF1010EA6FB0C584FF000070A
:102890004FF00005E6FB0E87A1FB08C6A0FB07CEA4
:1028A00016EB0E0645F10005E1FB076515F1E04E5C
:1028B0007EBFA4F580345FEA46066D4116F18007BD
:1028C00045F100054FEA17274FEA066647EA056714
:1028D000A6F1DE46B6F1805F4FEA15251FD93846CE
:1028E00024F0010C05EBC471BCF1FE6F01EB0C117F
:1028F00002D8F0BCBDE8008124425CBF01F5801E17
:102900009EEAC47F02D4F0BCBDE80081244238D4E2
:10291000F0BCA1F1C041BDE8004100F001BA4FEAAE
:10292000D22242EA43524FEAD323A7FB02864FEA60
:10293000D02040EA415007FB03661EEA0E0F4FEA23
:10294000D12105FB026658BFA6EB0056B6EB005638
:102950004FEA520E4EEAC37E18EB0E0E56EB530EA4
:10296000BDD518EB02085E417F1C55F10005B6E7A6
:102970004FF480154FF000074FF000064FF00008AD
:10298000ADE7F0BC4FF0000001F1C04101F00041A3
:10299000BDE8008111EA0C1F0CEA131500D00CE011
:1029A00013EA0C1F00F025804FF00000F0BC81EA14
:1029B000030101F00041BDE80081F0BCBDE8004129
:1029C00081EA030100F0ACB9F0BCBDE8004170B58C
:1029D00000F058F9097EFC3E00F007B881EA0301D7
:1029E0004FF0000001F00041704781EA030100F060
:1029F00097B9F0BCBDE800414FF000002149704795
:102A0000FFFDFBF9F7F5F4F2F0EEEDEBE9E8E6E4B3
:102A1000E3E1E0DEDDDBDAD8D7D5D4D3D1D0CFCD3A
:102A2000CCCBCAC8C7C6C5C4C2C1C0BFBEBDBCBB73
:102A3000BAB9B8B7B6B5B4B3B2B1B0AFAEADACAB6E
:102A4000AAA9A8A8A7A6A5A4A3A3A2A1A09F9F9E48
:102A50009D9C9C9B9A9999989797969595949393FA
:102A6000929191908F8F8E8E8D8C8C8B8B8A898991
:102A70008888878786858584848383828281818014
:102A80000000FF070000F87F51EA030C17D41CF583
:102A9000801F58BFBCF5801F00F10680994218BF07
:102AA000704708BF9042704707D711F5801F58BF85
:102AB00013F5801F19D499427047894270471CF55D
:102AC000801F08D5BCF5801FF7D58B4218BF704713
:102AD00008BF824270474FF4001C1CEB410F38BF07
:102AE0001CEB430F01D28B42704770B500F0CAF85F
:102AF000922449004FF000514FF08053FFF760BE21
:102B000010F0004248BF4042B0FA80F310FA03F1DF
:102B10000AD0C3F11D0303F580634FEA415002EB75
:102B2000035202EBD12170474FF0000070470000C4
:102B3000DFF848C170B51CEA111E1EBF1CEA131550
:102B40009EEA0C0F95EA0C0F00F06F8081EA0304F7
:102B500023EA4C134EEAD47E21EA4C1141F4801151
:102B600043F48013AE44A1FB024CA0FB0365AEF11D
:102B70007F7E361955EB0C05A1FB034C4CF100038D
:102B8000A0FB021C16EB0C06654153F10003094241
:102B900018BF46F0010613F4007F0BD14FEA033152
:102BA0004FEA0530340341EA155140EA16506FF000
:102BB00003020AE04FEAC3214FEAC520F40241EACA
:102BC000555140EA56506FF0020202EB2E4201EBE3
:102BD000025585EACE710AD05FEA440C18BF24F092
:102BE000004450F1000041F1000120EAD47040F2AD
:102BF000FE7C624500D270BDA84214BF4FF08044F5
:102C00004FF04044002E08BF0024BEF1806FA8BFE3
:102C1000A1F1C041BDE8704080F282804FF0000019
:102C200001F1C04101F0004170479EEA0C0F0CEA2F
:102C3000131518BF95EA0C0F06D04FF0000081EA7B
:102C4000030E0EF0004170BD00F01CF88900013E3B
:102C500000F007B800F009B84FEA430C5FEA5C5C8B
:102C600008D081EA030100F05BB84FEA410C5FEA4B
:102C70005C5CF6D14FF00000014970470000FF078F
:102C80000000F87F0EF1020E2EF0030E5EF8046BCA
:102C9000364205D4012A43EB030515F5001F12D86F
:102CA000012841EB010C1CF5001F0CD80ED14FEA96
:102CB000D17C15F5001F0CEB4C0C0CF1020C08BF7D
:102CC0004CEBD37C04E04FF0080C01E04FEAD37CDE
:102CD0000CEB4C0526FA05F606F00706B6F1040CD7
:102CE00006D20EEB860CBDE870404CF0010C60473C
:102CF000DFE80CF0090B02024FF000414FF000003A
:102D0000A1F5002170BD19461046012851EB0104C0
:102D100018BFD4F5001484BF002001F0004170BD3D
:102D20000808A0F500114FEA3101704791EA030F3E
:102D300010B581F000413FF59BAC83F0004300F0FB
:102D400009B8000010B591EA030F48BF83F00043B3
:102D50003FF58EAC841A71EB030C07D212198CF07C
:102D6000004C43EB0C03001B61EB0C01DFF8A4E10A
:102D70004FEA1154A4EB135C1EEA430F18BF9EEAFE
:102D8000445F00F0B08023EA6E03524221EA04510E
:102D9000C3EB6E0338BF5B1EDCF1200E25D322FA95
:102DA0000CFE10EB0E0043FA0CFE41EB0E01CCF1D1
:102DB000200E03FA0EFE10EB0E0051F10001CCF1D3
:102DC000200E29D412FA0EF201EB0451BDE8104096
:102DD00058BF7047401C1CBFB2F1004F704700281D
:102DE0000CBF491C20F00100704712EB020E43EBB0
:102DF000030218BF4FF0010E4EEA4202ACF1200C64
:102E0000DCF11E0E54D943FA0CFE10EB0E0051F10A
:102E1000FF31CCF11E0ED5D50EF1010E12FA0EFEC9
:102E2000404141EB010101EB445C5FEA5C5C10D97D
:102E300010EBDE7001EB045138BFBEF1004FBDE86E
:102E4000104018BF704700280CBF491C20F001003B
:102E5000704730D24FEAD42C11F5001124F40064ED
:102E60001BD0B1FA81F20B3AA41AA41ED2F12003AE
:102E7000914030FA03F31943904001EBCC71002CE0
:102E800001EB0451BDE81040A8BF704701F1C041FB
:102E90004FF0000001F000417047B0FA80F310FAE3
:102EA00003F100D110BDE41A173C4805C90AE4E754
:102EB00001EB045110BD491001EB0451BDE8104075
:102EC0004FEA300002E04FF0000170474A0008BFAF
:102ED0000042F8D0B2F5001F28BF704701F0004152
:102EE0004FF0000070479EEA445F07D011EA5E0F82
:102EF000BDE8104004BF002100207047BDE810402D
:102F000070B5FFF7BFFE00BF40DFF63E83F0004123
:102F1000104670470000E0FFFF2141EAD050C00595
:102F200070470CF00F03092B08BF082000F05980F0
:102F30000A2B0BD0082B18BF704708BF1CF0400F9E
:102F40000AD04FF000004FF0000170471CF0400F16
:102F500018BF4FF0004070471CF0100F08D020F051
:102F6000704300F07F4242EAD3014FEA437070475A
:102F700000F0604021F07F4242EA000201F07F4011
:102F800040EA727070474FF0FF0C4CF4E06C1CEAA2
:102F900011531CBF9CEA030C9445C2BFDA4201EBFB
:102FA00002517047002B0DD0BCF1000F0FD0002A4A
:102FB00001F00041A4BF41F0E04141F07F614FF0DA
:102FC0000000704701F000414FF00000704750EAE8
:102FD00001334FF09B0C18BF4CF0806C7FF4E8ABD2
:102FE00070471CF4801F11D01CF4E02F03D06FEA4F
:102FF000CC31490070474FF04050EFF3008222F08F
:10300000704242EA000282F3008870474FF00000ED
:103010007047010202030405060708090A0B0C0D9C
:103020000E0F101000000000000000000102030459
:103030000607080900000000010203040000000068
:103040004FBB610567ACDD3F182D4454FB21E93FC0
:103050009BF681D20B73EF3F182D4454FB21F93FAF
:10306000E2652F227F2B7A3C075C143326A6813C35
:10307000BDCBF07A8807703C075C143326A6913CE0
:10308000C4EB98999999C9BF711623FEC671BCBF4C
:103090006D9A74AFF2B0B3BF9AFDDE522DDEADBFB4
:1030A0002F6C6A2C44B4A2BF0D5555555555D53FCC
:1030B000FF8300922449C23F6E204CC5CD45B73FE7
:1030C000513DD0A0660DB13FEB0D76244B7BA93F5F
:1030D00011DA22E33AAD903F00000000000000004A
:1030E00000310008000000202C000000280100082A
:1030F0002C3100082C000020440700004401000887
:1031000001000000000000000000000000000000BE
:1031100001000000100000000000000000127A0012
:0C312000000000000000000000000000A3
:04000005080000ED02
:00000001FF
